:100000000C94A2010C94DA010C94DA010C94DA013C
:100010000C94DA010C94DA010C94DA010C94DA01F4
:100020000C94DA010C94DA010C9431200C94052123
:100030000C94AD1A0C94DA010C94DA010C94DA01E8
:100040000C94DA010C94DA010C94DA010C94DA01C4
:100050000C94DA010C94341B0C94DA010C94DA0140
:100060000C94DA010C94DA010C94DA010C94DA01A4
:100070000C94DA010C94DA010C94DA010C94DA0194
:100080000C94DA010C94DA010C94DA010C94DA0184
:100090000C94DA010C94DA010C94DA010C94DA0174
:1000A0000C94DA010C94DA010C94DA0104000500D6
:1000B00006002252090021521E001F0020002200CB
:1000C000230021002400250026001E001F00270019
:1000D00004000500060008000900070000000000F9
:1000E000000000002A2B2800000000000000000093
:1000F0000000000000000029000000002C1E342039
:10010000212224342627252E362D3738271E1F205E
:100110002122232425263333362E37381F040506A3
:100120000708090A0B0C0D0E0F10111213141516E7
:100130001718191A1B1C1D2F3130232D35040506E5
:100140000708090A0B0C0D0E0F10111213141516C7
:100150001718191A1B1C1D2F3130354C00000000D8
:10016000000000000000000000000000000000008F
:10017000000000000000000000000000000000007F
:100180007E0F00D4FFFFFFC700000078180369004E
:1001900073006F00670069006E0063006800610013
:1001A0006B00360000001203730061006D00310027
:1001B0006400610072006500000004030904090284
:1001C0005B00030100A0FA09040000010301010023
:1001D00009211101000122400007058103080001E7
:1001E000090401000203000000092111010001229D
:1001F00022000705820320000107050303200001F8
:10020000090402000103000000092111010001227C
:10021000B60007058403200001120100020000005F
:1002200008313A02000001010200010660FF096185
:10023000A1010962150026FF0095207508810209B9
:1002400063150026FF00952075089102C00501097D
:1002500002A10185020901A100050919012908155A
:100260000025019508750181020501093009311544
:1002700081257F95027508810609381581257F95AE
:100280000175088106050C0A38021581257F950144
:1002900075088106C0C005010980A1018503190107
:1002A0002AB700150126B700950175108100C00519
:1002B0000C0901A101850419012AA002150126A03B
:1002C00002950175108100C005010906A10185068E
:1002D000050719E029E71500250195087501810238
:1002E0000507190029EF1500250195F07501810218
:1002F00005081901290595057501910295017503F8
:100300009101C005010906A101050719E029E715BA
:100310000025019508750181029501750881010587
:1003200007190029FF150026FF00950675088100B2
:1003300005081901290595057501910295017503B7
:100340009101C00011241FBECFEFDAE0DEBFCDBFA8
:1003500004B603FE18C08091870290918802A09194
:100360008902B0918A028730904BA740B04B59F474
:1003700010928702109288021092890210928A02CB
:10038000E0E0F8E3099511E0A0E0B1E0E8E8F7E487
:1003900002C005900D92AC39B107D9F722E0ACE963
:1003A000B1E001C01D92A738B207E1F70E94D0105A
:1003B0000C9470230C94000084E008958430B8F409
:1003C0006230A8F4433098F450E093E0699F400D08
:1003D000511D1124FA0196E0899FE00DF11D1124B1
:1003E000EE0FFF1FE455FF4F85919491089581E032
:1003F00090E0089581E0089581E008950E94FC0155
:10040000089508950E9401020895A5E0B0E0EBE090
:10041000F2E00C94DC2249835A833091A301898154
:100420009A81311119C0662399F0222389F00E9424
:100430008107182F682F89819A810E945D07698141
:100440007A81812F0E94700E2596E3E00C94F822A9
:100450000E946F07182FF3CF0E94810769817A816C
:10046000F1CFFC01262F408151816281738184810B
:100470000E940502089581E00895CF93DF93EC0177
:1004800060E00E943102BE010E940202DF91CF9122
:10049000089508950E9453060E9449022FEF84E3B5
:1004A0009CE0215080409040E1F700C0000008959A
:1004B0000E944A020E94581B08950E944A020E940C
:1004C0007C1B08950F931F93CF93DF938C0161E002
:1004D0000E943102EC01B8010E94C713811106C0CD
:1004E00080E0DF91CF911F910F910895B801CE0167
:1004F0000E94FE018823A1F3B801CE010E94851855
:10050000882371F3B801CE010E94AE14882341F311
:10051000B801CE010E94F717882311F3B801CE016C
:100520000E94C9188823E1F2F8018281882361F0D2
:10053000C330FCE7DF07E9F058F4C115ECE7DE074C
:10054000A9F0C130DC47B9F0C8010E94FA01C9CF57
:10055000CB358CE7D807A9F0CC35ECE7DE0771F096
:10056000CA35DC4789F70E94D40BEECF0E945802AF
:10057000B7CF0E94DC0B0E945D02B2CF0E94CA0B73
:10058000E3CF0E94D80BE0CF0E94891A0E94EB02B1
:1005900008950E94EF020E948E1A0895089581E046
:1005A00008950895CF93DF93D82F0E94CF02C82FCC
:1005B000882319F08D2F0E94D1028C2FDF91CF91CB
:1005C00008950895CF93C82F0E94CE028C2F0E94C9
:1005D000D202CF91089580E00E94E20208950E9425
:1005E0001C190E94E2020895CF930E941C19C82F83
:1005F00080919E018C1779F0C0939E010E94191B77
:1006000060939F017093A0018093A1019093A20138
:100610008C2F0E94E202CF910895ABE0B0E0E3E1BD
:10062000F3E00C94DD224F83588769877A878B87A4
:1006300061110E94150B1E821D8285E0FE01379616
:10064000DE01119601900D928A95E1F78C819D81D2
:10065000892B61F449815A816B817C818D819E81D6
:100660000E943D0A2B96E2E00C94F92289819A813E
:1006700089238F3F79F3CE0101960E943B028111BD
:10068000E9CFF0CFFC01808191810E94AE070895EF
:10069000662329F00E9454110E94271208950E9497
:1006A000AE11FACFCF93C82F8823B9F08CEF8C0FFF
:1006B000813AA8F46C2F80910001909101010E9471
:1006C000AF19882329F08C2F0E94D50A0E94360B7F
:1006D0008C2F0E94CD0A0E94360BCF91089580E2A4
:1006E0008C0F883048F4C77081E001C0880FCA952C
:1006F000EAF70E94F80AEFCFEBE5EC0FE33040F4A5
:10070000F0E0E45BFE4F808190E00E945119E5CF5C
:10071000E8E5EC0FEB3150F4F0E0EE0FFF1FEA5E7E
:10072000FE4F808191810E947619D7CF83E38C0F91
:10073000833198F661E08C2F0E944803CECF882346
:1007400081F19CEF980F913A28F40E94D50A0E94FB
:10075000360B089590E2980F983050F4877091E02E
:1007600001C0990F8A95EAF7892F0E94FE0AEFCF00
:100770009BE5980F933028F490E080E00E94511997
:10078000089598E5980F9B3128F490E080E00E944E
:100790007619089593E3980F933118F460E00E945E
:1007A000480308951F93CF93DF93182FEB010E9406
:1007B0005203209739F4812F0E949F03DF91CF913C
:1007C0001F9108958FE99FE00197F1F700C00000A5
:1007D0002197EFCF70E060E0893311F460E570E0BD
:1007E0000E94D2030895882321F00E94F80A0E94F3
:1007F000360B0895882321F00E94FE0A0E94360BD2
:100800000895B0E0A0E0E7E0F4E00C94D6226C019B
:10081000D62FC72FFC011281058102950F700E940F
:10082000EE0AE82E8823E9F0E12E1123D1F08C2F77
:10083000807F803451F080E28D0F8830F8F0011114
:1008400004C08C2F807E8032C9F08091710282FFBB
:1008500015C082E00E94990B0E94EE0A91E0E82EFA
:10086000E926BC2EB2949FE0B922FBE0FB15B8F15B
:10087000EB2DF0E0EE58FC4D0C94C022E12CF1CFB2
:100880000C2F0F70C07F11F00295007F112399F09B
:10089000002359F080E28D0F883010F0D11107C08D
:1008A000802F0E94F80A0E94360B8D2F63C0802F84
:1008B0000E94080BF8CF8D2F0E949F03002379F030
:1008C00080E28D0F883010F0D11104C0802F0E947B
:1008D000FE0A03C0802F0E940E0B0E94360B2B2DA8
:1008E0002850330B2430310520F40E941C190E943B
:1008F000E202EE2089F00E94EA0A80FD0DC0F601B6
:1009000012820E94E40A0E94D106C6010E941306C8
:100910000E94E40A0E94DD06CDB7DEB7E9E00C9440
:10092000F2222C2F2F70F22EC07FC03219F0F294D9
:1009300080EFF822DD2381F0D13009F449C0112382
:1009400009F451C0002309F448C0F601858180FFF5
:10095000ACCF8F70858341C08091710282FD15C03C
:10096000112359F0FF2029F08F2D0E94F80A0E94D0
:10097000360B80E00E945203B2CF80E00E949F03BA
:10098000FF2009F4ACCF8F2DA2CF112381F00111EC
:1009900006C00E94180B8F290E94F303A0CF0130DC
:1009A000C1F70E94180B8F290E941F0B98CF0111CD
:1009B00006C00E942C0B8F2D0E94FA0390CF0130AD
:1009C00009F48DCF8F2D0E94FA030E942C0B87CF44
:1009D000112329F0063008F082CF8F2DDDCF0530AE
:1009E00008F07DCFE8CF002331F3D93349F4FFEF8E
:1009F00027EE33E0F15020403040E1F700C0000026
:100A00008D2F0E949F036BCF8C2F869586958370C8
:100A100069F0813009F063CF8D2F9C2F93701111F5
:100A200002C080E090E00E94761959CF8D2F9C2F54
:100A30009370111102C080E090E00E9451194FCFD5
:100A4000612F8D2F0E9448034ACF8C2F837079F538
:100A5000111145CF4D2F429546954770440F440FD5
:100A60008D2F8F70042E01C0880F0A94EAF72D2F66
:100A70002071D4FF07C02FE030E001C0220F4A955B
:100A8000EAF72095C695C695C370822BC23049F00F
:100A900058F4C13019F00E94AD0621CF0E94A7067C
:100AA0001ECF0E94B3061BCF0E94A40618CF8695C6
:100AB000112311F08C2F8170882309F410CF4D2F52
:100AC000429546954770440F440F8D2F8F70042E2A
:100AD00001C0880F0A94EAF72D2F2071D4FF07C0B8
:100AE0002FE030E001C0220F4A95EAF72095C69525
:100AF000C695C370822BC23049F058F4C13019F04A
:100B00000E94FC06ECCE0E94F606E9CE0E94020787
:100B1000E6CE0E94BF06E3CECF70112329F08C2FC2
:100B20000E94D1068D2F38CF8D2F0E94FA038C2F73
:100B30000E94DD06D4CED23F41F160F4D03FB9F03F
:100B4000D13F81F0112309F446C00111AECE8C2FA4
:100B50008F711FC0D33F01F1D43FA1F78091710283
:100B600082FD24C08C2F8F71112311F312C0112329
:100B700041F0053008F0B3CE8C2F8F710E94EA0649
:100B8000AECE063008F0ABCEF7CF8C2F8F7111119F
:100B9000CFCF0E94D106A3CE112329F08C2F8F71C5
:100BA0000E94C8069CCE0E94C40699CE112349F02B
:100BB000CF718C2F0E94D10663E08C2F0E947B0B9B
:100BC0008ECE81E00E94990B023008F488CE82E03C
:100BD0000E94990B84CE002359F0D93309F010CF2D
:100BE0008FEF97EEE3E081509040E040E1F706CFD1
:100BF0008C2F8F719DCF0F931F93CF93DF93EC01B9
:100C0000688179818A810E94B9078C010E94080756
:100C10000E94A306B801CE010E940104DF91CF918A
:100C20001F910F910895CF93DF93EC018B819C81ED
:100C3000892B29F08881998189238F3F51F4DF9195
:100C4000CF910895CE010E94FB05CE010E943D0286
:100C5000F6CFCE010E9462028111F4CF0E94EE0A0B
:100C6000882369F38A81882351F38091710282FF7E
:100C7000E6CF82E00E94990BE2CF90E080E00E94F4
:100C8000511990E080E00E9476190E94150B0E9495
:100C9000360B0E9443120E94271208950E94DD0A1B
:100CA0000E943D0608950E94050B0E944E0608957D
:100CB00092959F70963091F058F4925F9F709230A9
:100CC00058F4803F19F030F4883E30F481E0089504
:100CD0009A5FF4CF843FD1F380E00895883EB0F36B
:100CE000813FD1F7F3CFFC0183819481892B29F0D7
:100CF0008081918189238F3F11F480E00895808164
:100D000091810E94AE070E9458060895A5E0B0E0C8
:100D1000ECE8F6E00C94DD222596E2E00C94F92252
:100D2000A6E0B0E0E6E9F6E00C94DD222696E2E0EB
:100D30000C94F92208950E949A0608950E949B0639
:100D40008093A801089508950E949E0608959091A9
:100D5000A801892B0E949E0608959091A8018923DD
:100D60000E949E0608959091A80189270E949E06E0
:100D700008950E949A0608950E94B90608950E9457
:100D8000BC068093A701089580E00E94BF060895E5
:100D900091E001C0990F8A95EAF7892F0E94BF065A
:100DA000089521E030E001C0220F8A95EAF7809192
:100DB000A701822B0E94BF06089521E030E001C008
:100DC000220F8A95EAF720958091A70182230E943D
:100DD000BF06089521E030E001C0220F8A95EAF7AE
:100DE0008091A70182270E94BF0608959091A701D4
:100DF000892B0E94BF0608959091A70189230E9424
:100E0000BF0608959091A70189270E94BF06089503
:100E10000895262F277091E001C0990F2A95EAF7CF
:100E200023E0769567952A95E1F7FB01EE0FFF1F0A
:100E3000E60FF71FE40FF51F50E040E0682F70E069
:100E40008191DF0111979B01042E02C036952795F1
:100E50000A94E2F7217021952827292328272C932B
:100E60004F5F5F4F4330510559F70895A82FA77082
:100E700023E0969587952A95E1F7FC01EE0FFF1F79
:100E8000E80FF91FE60FF71F50E040E080E02191E6
:100E900030E00A2E02C0369527950A94E2F72170B9
:100EA0003327042E01C0220F0A94EAF7822B4F5FEA
:100EB0005F4F4330510559F70895262F923070F453
:100EC000833060F4682F70E083E0989F600D711D9F
:100ED000112444EA51E0822F0E9409070895292F26
:100EE000923068F4833058F490E064EA71E033E0C3
:100EF000239F800D911D11240E943607089580E0E4
:100F00000895CF92DF92FF920F931F93CF93DF93B9
:100F10006C010091A7018091A801082BC3E0D0E0EB
:100F200010E0FC2EC8010C2E02C0959587950A94FE
:100F3000E2F780FD0CC02197A0F7F12C8F2DDF91F7
:100F4000CF911F910F91FF90DF90CF900895B60140
:100F50008C2F0E947C0E019771F3F0CFCF93DF931B
:100F6000EC010E948107BE010E947C0EDF91CF91AF
:100F700008951F93CF93DF93EB019091A3019923E1
:100F800039F0CB010E94AE07DF91CF911F910895F8
:100F9000882369F0CB010E948107182F682FCE01AA
:100FA0000E945D07BE01812F0E947C0EEDCFCB0118
:100FB0000E946F07182FF6CFE1E0F0E0DF0102C0DA
:100FC000AA0FBB1F6A95E2F7BD01DF0102C0AA0F9D
:100FD000BB1F4A95E2F76A2B01C0EE0F2A95EAF78C
:100FE000962F9823961302C08E2B0895E0958E239A
:100FF0000895242F462F682F8091A7010E94DC07B7
:101000000E94BF0608951F93CF93DF93C091A9015B
:1010100016E08091AA018C1304C0DF91CF911F913B
:101020000895D0E01C9FF0011D9FF00D1124E5559F
:10103000FE4F4081518162817381848195810E943C
:1010400090062196C770E5CF4091DB015091DC01FD
:101050006091DD017091DE018091DF019091E001EE
:101060000E94900608952091A9019091AA0156E04E
:10107000291302C080E0089530E0529FF001539F91
:10108000F00D1124E555FE4F7181761306C0708175
:10109000781303C07281741304C02F5F3F4F277011
:1010A000E7CF81E008951F93CF93DF938091E00114
:1010B000807F09F04BC08091DD01882309F446C090
:1010C0008091A901C091AA014091DB015091DC01FE
:1010D0006091DE017091DF01D42FD52316E0C8178F
:1010E000A9F190E061157105A9F1DF3F99F1189F11
:1010F000F001199FF00D1124DF01A555BE4F119687
:101100002C911197251326C02C91241323C01296DD
:101110002C91129721111EC013962D913C91261BE4
:10112000370B283C3105B0F48091E0018F7080616D
:101130008093E001E055FE4F80818F708061808355
:101140008BED91E00E9413060E940308DF91CF917E
:101150001F91089501968770C2CFA1E1B0E0E3EB43
:10116000F8E00C94D3228C0185E0F801DE011D9695
:1011700001900D928A95E1F7F801F2808BEDA82E8F
:1011800081E0B82E4091DE015091DF0141155105FB
:1011900009F45AC19091DB012091DC01892F82234F
:1011A0008F3F09F451C1C080D18083809480E0904A
:1011B000DD01B401641B750BEE2009F4F6C08091CB
:1011C000E001382F307F683C710508F0AFC0311165
:1011D0007AC0EF2C2D1116C09C1114C0F11012C052
:1011E0008F7080618093E0010E942408C5010E94F5
:1011F00013068091E001F80185838E2D6196ECE065
:101200000C94EF2281149104C9F18C2D8D218F3F14
:10121000A9F181E08F2580FF05C04F2D6D2D8C2D0C
:101220000E9433088114910459F18C2D8D218F3F38
:1012300039F181E08F25F82FF170BF2E80FF39C082
:101240004F2D6D2D8C2D0E943308A82E811131C099
:10125000CD86DE868D859E850E94AE07292F22953C
:101260002F70243078F49F702230A8F09923B9F0C1
:10127000F8019581907F99F4EA2CBFCF80E0CBCF25
:1012800080E0D9CF2A5F2F70223068F0C8010E9419
:101290001306AB2CF1CF992311F0882369F3805EFC
:1012A000883050F3F3CF803F38F3815F833070F79D
:1012B000E3CFFF2009F4A1CF8091E001816080930A
:1012C000E001E12C9ACF2D1105C09C1103C0FF2035
:1012D00009F486C0C8010E947306882319F1FF2013
:1012E00009F18091E001803270F02091DB013091B2
:1012F000DC0138872F8319869B868A868C87CE01EE
:1013000007960E94130686E0F801ABEDB1E001906C
:101310000D928A95E1F70E9453080E942408EE245A
:10132000E3946BCFC8010E941306F9CF311114C0AA
:10133000782D998A888AA6016F2D89890E94860650
:101340008BED91E00E94130686E0F50111928A95DB
:10135000E9F70E942408B5CF2D110EC09C110CC0D6
:10136000F1100AC08583C8010E94130686E0F501CA
:1013700011928A95E9F741CFC8010E94730688232C
:1013800089F2FF2079F28091E001803208F4BBCF2E
:101390002091DB013091DC013A8329831B829D82FD
:1013A0008C828E83CE010196ACCF683C710508F02B
:1013B0003DC0EF2CFF2009F4B5CF2D1129C09C11A1
:1013C00027C08091E00180FD1AC0982F907FB9F06E
:1013D0008583903F31F0982F907F905F8F70892B9D
:1013E0008583C8010E94130686E0F801ABEDB1E0E9
:1013F00001900D928A95E1F70E942408FECE86E0C6
:10140000F801ABEDB1E001900D928A95E1F7F5CED0
:10141000C8010E947306811176CF8091E00181603E
:101420008093E001C8010E941306E7CE782D998AC7
:10143000888AA6016F2D89890E94860686E0F501BB
:1014400011928A95E9F7D8CFFF2009F46BCFC80134
:101450000E947306E82E882309F464CF86E0F80121
:10146000ABEDB1E001900D928A95E1F78BED91E043
:101470000E9442030E945308BFCFACE0B0E0E3E417
:10148000FAE00C94DC224F83588769877A878B8730
:101490009C87CE0107960E94AD088823B1F08A850B
:1014A0009B85892B39F04F815885842F85238F3F69
:1014B00009F06CC016E08091A9019091AA018913EE
:1014C00043C02C96E3E00C94F82286E0FE013796A8
:1014D000DE01119601900D928A95E1F78A859B8530
:1014E000892B41F38F81988589238F3F19F32091B0
:1014F000AA0130E0C9010196877099274091A9019E
:101500004817190671F40E9453061092AA0110920E
:10151000A90186E0EBEDF1E0DF011D928A95E9F784
:10152000C9CF96E0929FD001939FB00D1124A5558D
:10153000BE4FFE01319601900D929A95E1F780938E
:10154000AA010E940308B6CF819FC00111248555CE
:101550009E4F0E94AD08882309F4B3CFE091A90102
:101560001E9FF0011124E555FE4F4081518162819B
:101570007381848195810E9490068091A90190E0F9
:101580000196877099278093A90195CF69857A85FF
:101590008B859C850E9490068DCF682F80910001DD
:1015A000909101010E942F1A0895682F80910001E7
:1015B000909101010E943D1A08958091000190913F
:1015C00001010E944B1A089580910102859585952D
:1015D0008595089580910102877008959091010288
:1015E000977081E009F480E00895809124020895C5
:1015F00090912402892B80932402089580959091E4
:1016000024029823909324020895109224020895AE
:1016100090912302892B80932302089580959091C5
:101620002302982390932302089510922302089591
:1016300080910202089508950E941B0B08959091D5
:10164000710292FF08C090910202981721F08093D6
:1016500002020E941C0B089580910202882329F047
:101660001092020280E00E941C0B0895CF93DF933A
:10167000E0910001F0910101809124028083E091CA
:101680000001F0910101808190912302892B8083D8
:1016900090910202992381F0E0910001F091010103
:1016A0008081892B808380910001909101010E94AB
:1016B0009B1981110E942C0BC0910001D091010156
:1016C00040E250E061EE71E0CE010E941823892BC8
:1016D00059F080E2FE01A1EEB1E001900D928A95F1
:1016E000E1F7CE010E942919DF91CF910895089565
:1016F0000E94770B08959091710292FF11C098E0BB
:10170000899F90011124622B609301020E94D106EF
:10171000809101028595859585950E94780B0895A5
:101720000E94D10608951092010280E00E94780B79
:101730000895909101028095892380930102282FBA
:10174000277091F4282F082E000C330B92171306E4
:1017500059F09091710292FF07C085958595859506
:101760000E94DD060E94930B08959091710292FBF6
:10177000222720F9281769F080FB92F990937102D3
:1017800080917002909171020E94FE0B82E00E9493
:10179000990B08958091710282FB882780F991E06E
:1017A00089270E94B50B089581E00E94B50B08952A
:1017B00080E00E94B50B08956FEF7FEF90E080E02E
:1017C0000E945A23089590E080E00E943623873ECD
:1017D0009E4F19F40E946113089580E0089582E0FD
:1017E00090E00E942E23089583E090E00E942E2333
:1017F000089584E090E00E9436230895BC0184E0BF
:1018000090E00E945A230895AB01BC018FE090E064
:101810000E944E230895AB01BC0183E190E00E9439
:101820004E23089560E070E0CB010E940B0C0895F8
:1018300060E070E0CB010E94040C0E94120C08953D
:1018400067EE7EEF90E080E00E945A2360E082E045
:1018500090E00E943C2360E083E090E00E943C2303
:101860001092A80160E074E184E090E00E945A23A5
:1018700060E086E090E00E943C236FEF87E090E01C
:101880000E943C2340E050E0BA0188E090E00E94D2
:101890004E2360E08DE090E00E943C2340E050E069
:1018A000BA0188E190E00E944E2360E087E190E079
:1018B0000E943C2340E050E0BA018CE190E00E949D
:1018C0004E2370E060E080E290E00E945A2340E006
:1018D00050E0BA0188E190E00E944E2380E00E942F
:1018E0007A130E94A9130E94180C08950E94200CDC
:1018F0000895682F8EE090E00E943C230895A5E0B3
:10190000B0E0E5E8FCE00C94DB220E940D1B8C01AA
:10191000809125029091260280179107A1F08FEF08
:1019200089838A831B820E940D1B8160782F9D838F
:101930008C8349815A816B818D810E940D031093A4
:101940002602009325022596E4E00C94F7220E94DB
:10195000191B60932D0270932E0280932F02909397
:1019600030026093290270932A0280932B02909395
:101970002C020895089508950E94BB0C08950895BF
:101980000E94BF0C089581E0089586E69FE00E94C2
:1019900012190E94BA0C0E94BC0C08950E94C30C3C
:1019A00008950E94CE0C0895089508950E94D40CC5
:1019B0000E94D50C08950E94850F0E94E1020895AF
:1019C0000E94041B0E94B9130E943E100E94DB0C6F
:1019D0000E94C00C0895A5E0B0E0E1EFFCE00C949B
:1019E000D5220E94C30C81110AC00E947F0C0E9464
:1019F00065120E94F4022596EAE00C94F1220E94FE
:101A00004E101091270280E00E94A80F181307C003
:101A10001091280281E00E94A80F181731F38091DD
:101A2000310281FD0E94AE0F0E94D10CC82E87E2C8
:101A3000A82E82E0B82E10E0812F0E94A80F082F58
:101A4000F50181915F01081731F1D02ED826F12CD4
:101A5000EE24E3948E2D8D21B1F0CC20A1F0F982FB
:101A60001A8391E08E2D802309F490E09B830E94DD
:101A70000D1B8160782F9D838C8349815A816B81F6
:101A80008D810E940D03F394EE0CF3E0FF12E2CF80
:101A9000F50131970083113019F40E94A70CA7CFEC
:101AA00011E0CACF1F93CF93DF930E94810EEC0108
:101AB000C11580E5D807F0F5C11580E4D80708F016
:101AC0009CC0C03ED10520F5CD3CD10508F082C0B8
:101AD000C83AD10578F4C53AD10508F073C0C130D1
:101AE000D10519F1209709F1C430D105F0F4D0E007
:101AF000C0E01BC0C13CD105D0F7C85AD0E0CC0F24
:101B0000DD1FC15BDE4F0990D881C02DD4640DC0AC
:101B1000C11580E2D80708F0D1C0C11581E0D8070F
:101B200008F05AC0C83ED10510F7CE01DF91CF9121
:101B30001F910895C03682E5D80718F5C03482E5B4
:101B4000D80708F06BC0C03282E5D80708F05FC044
:101B5000C11582E5D80708F497C02C2F2695269545
:101B600080E2289F900111248C2F8370C1E0D0E087
:101B700002C0CC0FDD1F8A95E2F7C22BD32BDD68A4
:101B8000D4CFC03A82E5D80760F4C03882E5D807E0
:101B900008F459C0CF71D0E0DC2FCC27C46FD06AD5
:101BA000C4CFC03C82E5D80708F462C0C03E82E5DD
:101BB000D80708F09CCFDC2FCC27CC27DF71C06F73
:101BC000D06AB3CFC55AD0E0CB57DE4FC881D0E042
:101BD000D064ABCFD065A9CF8D2F0E94230F182FD3
:101BE000CE0199270E94810EC12FD0E0DC2FCC2797
:101BF000CC27DF71C82BD92B98CFCE0199270E9413
:101C0000810ECC27DF70C82BD92BD06A8ECFCF7135
:101C1000D0E0DC2FCC27C16FD06A87CF2C2F269540
:101C20002695277080E2289F900111248C2F8370C5
:101C3000C1E0D0E002C0CC0FDD1F8A95E2F7C22BD5
:101C4000D32BDC6872CF2C2F26952695277080E247
:101C5000289F900111248C2F8370C1E0D0E002C036
:101C6000CC0FDD1F8A95E2F7C22BD32BDA685DCF4C
:101C70008C2F8F710E94230FC82FD0E0DC2FCC2730
:101C8000CC27DF71D06251CF8C2F8F710E94230F30
:101C900055E0D695C7955A95E1F7CF70D0E0DC2F87
:101CA000CC27282F30E084FF05C044E0220F331FEB
:101CB0004A95E1F7C22BD32BD06937CF8D2F8F7187
:101CC0000E94230F182FCE0199270E94810EC12F49
:101CD000D0E0DC2FCC27CC27DF71C82BD92BD2CF7B
:101CE000462F723030F4633020F4672F0E940F17B4
:101CF000089590E080E008950E94700E0E94520DB9
:101D0000089582389105B9F1B0F48133910509F451
:101D10007DC048F48932910509F46DC08A3291057D
:101D200009F47BC008958533910509F45FC08933B8
:101D3000910509F10895833E9105D9F138F4803E6B
:101D4000910529F1823E910579F10895863E91052C
:101D5000D9F1873E910509F43EC0843E910541F5D5
:101D60002091710221FF24C08091700284FD19C06E
:101D700087EE90E0089520917002237009F05AC018
:101D80002091710223FF14C089E290E00895209110
:101D9000700220FD38C03091710230FF09C024FF6D
:101DA00043C090E080E008952091700222FDF7CFBB
:101DB00008952091700222FD3AC03091710230FDE9
:101DC00039C024FFF5CFEDCF2091700223FFF0CF73
:101DD00024FDE7CFCDCF2091700223FD2EC030919E
:101DE000710231FFEECF84EE90E0089520917002F1
:101DF00025FFDECFC9CF2091700225FD21C02091A3
:101E0000710223FFD5CF89E390E0D2CF20917002F9
:101E100026FFCECF8AE290E008952091700226FF3F
:101E2000C7CF81E390E0089583EE90E0089582EEBD
:101E300090E0089580EE90E0089586EE90E0089599
:101E400085E390E008959091700292FF06C0282FDC
:101E500028712830F9F4877F846093FF06C0282F0B
:101E600028712831F1F4877E84612091710220FF6E
:101E700006C0382F38713830D9F4877F816021FF50
:101E800006C0282F28712831D1F4877E816194FD06
:101E9000877E0895282F24712430F9F68B7F88607F
:101EA000DCCF282F2471243101F78B7E8861DDCFB0
:101EB000382F3171313019F78E7F8860E0CF282FAD
:101EC0002171213121F78E7E8861E1CF80E0089574
:101ED0000E94DC0B08950E944E102FEF86E791E0E0
:101EE000215080409040E1F700C000000E944E1059
:101EF00080E00E94A80F80FF04C00E94680F0E942B
:101F0000581B08950E946B0F08950E94E30B8111E6
:101F100002C00E94760C0E94EF0B809331020E9457
:101F2000F90B90937102809370020E94820F0E94BD
:101F3000F40B0E94A4068091A7010E94BC0608959C
:101F400008950E94A00F089508950E94A40F089577
:101F5000E82FF0E0EC58FD4F80810895089580EA65
:101F60008A95F1F7089500C008950E94AF0F089573
:101F7000F894E82FE295EF70F0E031A1282F2F7050
:101F800081E090E001C0880F2A95EAF7982F90959C
:101F9000932391A392A1892B82A37894089584E935
:101FA0000E94B80F86E60E94B80F84EF0E94B80F17
:101FB00085EF0E94B80F86EF0E94B80F0895B0E039
:101FC000A0E0E5EEFFE00C94D722EC01D62E062F20
:101FD00010E0C80185579E4F7C01FC0180818F3F36
:101FE00009F445C0F894E82FE295EF70F0E091A174
:101FF0008F7021E030E001C0220F8A95EAF7892F27
:10200000822B81A382A12095282322A378940E9469
:10201000B30FE8E8F1E04BE851E031E0C12C219149
:102020002F3F51F1A22FA295AF70B0E090968C9106
:1020300090E02F7002C0959587952A95E2F780FD74
:102040001BC0832FC82A330F4E175F0741F7F701D4
:1020500080818F3F11F00E94B80F61E0C11001C074
:1020600060E08D2D0E94B50FC00FD11FC882CDB783
:10207000DEB7E8E00C94F32280E0E4CF0E94CF0FBB
:1020800010927502109274021092730210927202F2
:1020900082E00E9484100E94A10F0895A2E0B0E0A7
:1020A000E4E5F0E10C94DC221A82198260E0CE01B2
:1020B00001960E94DF0F61E0CE0101960E94DF0FC2
:1020C00042E050E0BE016F5F7F4F82E792E00E94E6
:1020D000182321E0009709F420E0892B31F0898151
:1020E0009A81909373028093720242E064E772E0F7
:1020F00082E792E00E948510182F0E94A50F812F81
:102100002296E3E00C94F8220895CF92DF92EF92AA
:10211000FF920F931F93CF936C017B01042F222317
:1021200049F081E0809334020E940D1B90933302AA
:1021300080933202C0913402C1110AC0C0E08C2FDA
:10214000CF911F910F91FF90EF90DF90CF90089566
:1021500080913202909133020E94251B059770F303
:1021600010E0A801B601C7010E941823892B41F095
:10217000A801B601C7010E94252310923402DFCFC7
:10218000C0E0FBCF0E94061D0E94E00C0E94131DC0
:1021900008950E94181D0E94EB0C0E94321D0895A4
:1021A0000E94A61A0E94EC1C0E94C50C0E94C2103C
:1021B0000E94C9100E94D60CFBCF80913B0280FF89
:1021C0000DC06091070170E0660F771F60387105E0
:1021D00070F56115710569F1862F089581FF07C0BB
:1021E0006091070184E0689FB0011124EFCF6091F6
:1021F000070182FD0AC080913A028823A9F020914C
:10220000060160910701821710F088E0ECCF869FED
:10221000C001112433E0880F991F3A95E1F7622F2E
:1022200070E00E94AC22D2CF68E070E0D5CF8FE79B
:10223000089581E0089580913B0280FF0CC0609179
:10224000030170E075956795759567956115710542
:1022500049F1862F089581FF06C06091030170E067
:1022600075956795F3CF6091030182FD0BC0909146
:1022700039029923A1F06091020180910301961720
:1022800038F0682F70E06038710500F38FE708952B
:10229000899FC001112470E00E94AC22F4CF61E05C
:1022A00070E0D7CF81E008958D3C31F40E94DD10BD
:1022B000819580933F0208958E3C19F40E94DD10B1
:1022C000F8CF8F3C31F40E94DD10819580933E025F
:1022D0000895803D19F40E94DD10F8CF893D29F45E
:1022E0000E941B118093400208958A3D21F40E94B0
:1022F0001B118195F7CF8B3D31F40E941B11819505
:102300008093410208958C3D19F40E941B11F8CF6F
:102310009FE2980F983070F4815D990B21E030E0D6
:1023200001C0220F8A95EAF780913D02822B8093AB
:102330003D0208958D3D31F480913B028160809390
:102340003B0208958E3D21F480913B028260F7CFDD
:102350008F3DB9F780913B028460F1CF40913E02FE
:102360008D3C59F480913F0287FF0DC010923F02CF
:1023700041110BC010923A0208C08E3C81F480914A
:102380003F0218169CF3442381F080914002909103
:102390004102892B09F05AC01092390208958F3CEE
:1023A00049F447FFF0CF10923E0280913F02811125
:1023B000ECCFE0CF803D19F41416ACF3E4CF90914C
:1023C0004002893D29F41916F4F610924002DBCF41
:1023D0008A3D19F497FFD7CFF8CF909141028B3DFA
:1023E00029F497FFD0CF10924102CDCF8C3D19F444
:1023F0001916CCF3C8CF9FE2980F983090F4815D06
:10240000990B21E030E0B90102C0660F771F8A9571
:10241000E2F7CB01809590913D02892380933D02A4
:10242000B2CF8D3D31F480913B028E7F80933B0291
:10243000AACF8E3D21F480913B028D7FF7CF8F3D57
:1024400009F0A1CF80913B028B7FF0CF08950E94CD
:102450000D1B9C0190913E0280913F02982B21F030
:1024600030933802209337029091400280914102CC
:10247000982B21F030933602209335028CE392E0C2
:102480000E944319089586E0ECE3F2E0DF011D921B
:102490008A95E9F710923A021092390210923B02A3
:1024A0000895FC01828181110EC0838181110BC0CE
:1024B0008481811108C091E08581811101C090E083
:1024C000892F8170089581E0FCCFA6E0B0E0EBE6B3
:1024D000F2E10C94DC2286E0ECE3F2E0DE011196FE
:1024E00001900D928A95E1F710923E0210923F0200
:1024F00010924002109241028B819C81892B89F0BD
:1025000080913702909138020E94251BAC01909176
:102510003A029923C9F1809108018417150608F43D
:1025200040C08D819E81892B91F0809135029091E0
:1025300036020E94251BAC0190913902992309F4BF
:1025400071C0809104018417150608F479C0BE019A
:102550006F5F7F4F8CE392E00E945D1A811105C08E
:102560008CE392E00E94511281110E94271286E0B2
:10257000FE013196ACE3B2E001900D928A95E1F74D
:102580002696E3E00C94F822209109018AE0289F26
:10259000900111242417350720F69F5F90933A028B
:1025A00002C09F3FD1F71B81112359F00E94DD101B
:1025B0009FEF11160CF491E0899F802D11248093D8
:1025C0003E021C81112359F00E94DD109FEF11166D
:1025D0000CF491E0899F802D112480933F0230916B
:1025E0003E02332309F49DCF20913F02222309F4B8
:1025F00098CF45EB3403C0011124992359F09093EF
:102600003E0245EB240390011124332339F030932B
:102610003F0287CF81E080933E02F3CF81E0809339
:102620003F027FCF209105018AE0289F900111246D
:102630002417350708F08BCF9F5F9093390202C0B3
:102640009F3FD1F71D81112359F00E941B119FEF6D
:1026500011160CF491E0899F802D11248093400283
:102660001E81112359F00E941B119FEF11160CF4CB
:1026700091E0899F802D1124809341023091400286
:10268000332309F464CF20914102222309F45FCF60
:1026900045EB3403C0011124992359F09093400273
:1026A00045EB240390011124332339F03093410288
:1026B0004ECF81E080934002F3CF81E080934102CE
:1026C00046CF82E290E00E942E23833289F483E297
:1026D00090E00E942E23893059F484E290E00E9419
:1026E0002E2391E0813209F090E0892F81700895C6
:1026F00080E0FCCFCF93C82F6FEF811163E282E2BD
:1027000090E00E943C236FEFC11169E083E290E00A
:102710000E943C236FEFC11161E284E290E00E94CD
:102720003C23CF910895089585E290E00E942E23E6
:10273000682F70E090E080E008950895CF93C62F51
:102740000E949D136C2F85E290E00E943C23CF9164
:10275000089580E00E947A1360E070E0CB010E944F
:102760009E130E949D160E946A1781E00E947A13B0
:1027700008950E9493130E9494130E949D130E9437
:102780006113811102C00E94A913089508959C014C
:10279000FB018281882351F0A90157574038510528
:1027A00030F4822F0E947A1780E0089581E0089526
:1027B0002FEFFC01208308950E94D813089580E034
:1027C0000895B0E0A0E0E7EEF3E10C94D722EC012D
:1027D000E62E0E94DF13811110C0E881E150E33141
:1027E000B8F4F0E0E258FC4D0C94C02219828CE061
:1027F0008A836E2DCE010E94E01BCDB7DEB7E8E0E4
:102800000C94F32289818230C1F028F4813061F088
:102810008FEF8883EECF833099F08430C9F71A8226
:102820001B821C821D82E5CF0E94191B0E94C622BA
:102830006A837B838C839D83DCCF0E949413F6CFC5
:102840008A81082F10E06E0193E0C90ED11C9CE133
:10285000F92EF80E0230110560F6802F0E94A80FA5
:10286000F60181936F010F5F1F4FF012F3CFC1CFBD
:102870008981823031F0853059F68A810E94C613F1
:10288000B8CF6A817B818C819D810E94C6220E9483
:102890009E13AFCF4B816A8189810E945F16982772
:1028A000892798279D838C83A4CF2C813D81322753
:1028B000232732274B816A8189810E94811699CF13
:1028C0000E949D1696CF6E2DCE010E94DC1391CFF3
:1028D0000E941B1789838DCF0E941D179827892777
:1028E00098279A83898385CF6B8170E089819A814B
:1028F000AE014C5F5F4F9827892798270E942017C9
:1029000078CF6B8170E089819A81AE014C5F5F4F17
:102910009827892798270E9445176BCF0E946A172E
:1029200068CF0E944D16D6CF6B8170E089819A8165
:10293000AE014C5F5F4F9827892798270E94C916E0
:1029400058CF6B8170E089819A81AE014C5F5F4FF7
:102950009827892798270E94EC164BCFCF93DF93B7
:10296000EC01FB018281882309F4D2C09E0130571B
:102970002332310508F0B2C00E94F90B9093710226
:1029800080937002FE01E150F047E232F10520F43D
:10299000EF56FC4D0C94C0228091700281608093B0
:1029A000700293C0809171028860809371028DC023
:1029B000809170028260F3CF809170028460EFCFCB
:1029C000809170028860EBCF809171028160EDCFC1
:1029D000809171028260E9CF809170028061DFCFC7
:1029E000809170028062DBCF809170028064D7CFCB
:1029F0000E945306809170028068D1CF809170024E
:102A00008C60CDCF809171028360CFCF80917002B6
:102A10008E7FC5CF80917102877FC7CF8091700272
:102A20008D7FBDCF809170028B7FB9CF8091700276
:102A3000877FB5CF809171028E7FB7CF8091710271
:102A40008D7FB3CF809170028F7EA9CF809170026D
:102A50008F7DA5CF809170028F7BA1CF0E945306FE
:102A6000809170028F779BCF80917002837F97CF88
:102A7000809171028C7F99CF8091700282FB99279F
:102A800090F921E0922790FB82F990FB83F987CFA0
:102A900080917102982F909591708E7F892B90FB79
:102AA00081F983CF90917002892F8F7B96FF80648C
:102AB00076CF0E94530690917002892F97FB87F979
:102AC00080586DCF81E00E94790C809170029091C6
:102AD00071020E94FE0B0E94530680E0DF91CF91AD
:102AE000089580E0F0CF90917002892F8F7E94FF3F
:102AF000806155CF90917002892F8E7F90FF816009
:102B00004ECF90917102892F877F93FF88604DCFC0
:102B100081E0E4CFB0E0A0E0E0E9F5E10C94D82258
:102B2000E82FF0E0E452FF4FD490282F2695269509
:102B3000269530E0F901E458FE4F0491877010E0CB
:102B4000082E02C0159507950A94E2F70170112727
:102B5000F901E459FE4FE490F12C082E02C0F594DF
:102B6000E7940A94E2F791E0E922FF24F901E45A9C
:102B7000FE4FC491D0E002C0D595C7958A95E2F783
:102B8000C170DD270115110519F081EE0E94520375
:102B9000E114F10419F086EE0E9452038D2D0E947B
:102BA000EA03E114F10419F086EE0E949F03011577
:102BB000110519F081EE0E949F03CD2B19F08CE2D4
:102BC0000E94EA03CDB7DEB7E7E00C94F422EF925F
:102BD000FF920F931F93CF93DF93EC01162F0AE020
:102BE0008881882309F454C0813009F04EC089815E
:102BF000813099F47E0122E0E20EF11C8A810E946C
:102C0000EA03E7012196812F815050F3EFE9FFE0BD
:102C10003197F1F700C00000F7CF823041F47E0118
:102C200082E0E80EF11C8A810E945203EACF8330D1
:102C300041F47E01E2E0EE0EF11C8A810E949F03C6
:102C4000E0CF843011F02196DDCF2A81229690E0EA
:102C500080E0AE014F5F5F4F2053330B2A303105C8
:102C600048F0019778F2EFE9FFE03197F1F700C003
:102C70000000F7CF089FB001099F700D1124C90112
:102C8000860F971F2981EA01E4CF0E948A15BACFE7
:102C9000CDB7DEB7E6E00C94F52284E0089550E06D
:102CA000440F551F96E0699F400D511D11249CE073
:102CB000899F400D511D1124CA01869608950F93D6
:102CC0001F93CF93DF938430C8F46230B8F443305D
:102CD000A8F40E944F168C010E942E23C82FD0E02A
:102CE000DC2FCC27C80101960E942E239E01282BA1
:102CF000C901DF91CF911F910F91089590E080E07D
:102D0000F8CF0F931F93CF93DF93122F032F8430AD
:102D100078F4623068F4433058F40E944F16EC01A6
:102D2000602F0E943C23612FCE0101960E943C231C
:102D3000DF91CF911F910F9108950F931F93CF9320
:102D4000DF93D0E0C0E000E019C00E94DC0121E088
:102D500030E08C171D0639F034F0412F602F8C2F96
:102D60000E94DE019C01412F602F8C2F0E94811652
:102D70001F5F133051F7013019F001E010E0E5CF8B
:102D80002196C430D105F9F6DF91CF911F910F91B3
:102D90000895EF92FF920F931F93CF93DF93EC016F
:102DA0008A017C01E60EF71ECE018696CE15DF0560
:102DB00029F4CDB7DEB7E6E00C94F522C033D10597
:102DC00040F40E942E23F80180830F5F1F4F21964D
:102DD000EBCFF8011082F9CFB0E0A0E0E2EFF6E12E
:102DE0000C94D7227C016A018C01060F171FEC019D
:102DF000CE018696C017D10729F4CDB7DEB7E8E03B
:102E00000C94F322C033D10540F4FE01EE19FF0902
:102E1000EC0DFD1D60810E943C232196E9CF84309A
:102E200038F4623028F4433018F40E945F16089595
:102E300090E080E0089580E108958AEA93E00895A3
:102E4000EF92FF920F931F93CF93DF93EC018A01D0
:102E50007C01E60EF71ECE018A5A9F4FCE15DF0584
:102E600029F4CDB7DEB7E6E00C94F522CA3A23E0A8
:102E7000D20740F40E942E23F80180830F5F1F4F7A
:102E80002196E9CFF8011082F9CFB0E0A0E0EBE4A1
:102E9000F7E10C94D7227C016A018C01060F171F01
:102EA000EC01CE018A5A9F4FC017D10729F4CDB744
:102EB000DEB7E8E00C94F322CA3A23E0D20740F4EC
:102EC000FE01EE19FF09EC0DFD1D60810E943C23FF
:102ED0002196E7CFCF93DF93C6E5D0E060E0CE0147
:102EE0000E943C232196C11584E0D807B9F7DF91F1
:102EF000CF910895A8E0B0E0E0E8F7E10C94D52286
:102F0000F82E8FE08F1508F46EC08FEF93E00E94CB
:102F10002E23811168C006E510E0F11035C0FE01D6
:102F200031966F0188E011928A95E9F77801FFEFF9
:102F3000EF1AFF0AC8010E942E2389831A82882370
:102F400009F451C08130D1F4580182E0A80EB11CBF
:102F5000C7010E942E238A83882309F444C09FEF6F
:102F6000980F9330F0F4780193E0E90EF11CC5015D
:102F70000E942E238B838823B1F11C8260E0C6015E
:102F80000E94E7158701D2CF011594E0190759F186
:102F9000C8010E942E23811101C0FA940F5F1F4FB8
:102FA000BCCF7501843051F702E010E07501EFEFFE
:102FB000EE1AFE0AC5010E942E23F601E00FF11F52
:102FC0008083882381F08C3741F4E2E0F0E0EC0F5D
:102FD000FD1FE00FF11F1082D1CF0F5F1F4F570170
:102FE0000730110519F72896EAE00C94F122CF93E7
:102FF000DF93EB0186319C4711F50E94F50A9A8117
:10300000992399F08A7A91E009F490E09093420232
:10301000811109C089E20E94CD0A0E94360B80E02E
:10302000DF91CF91089585E3F6CF8091420281111F
:1030300004C089E20E94D50AF0CF85E3FBCF81E08E
:10304000EFCF0F931F93CF93DF93C42FD22FFC01A9
:1030500082818823C9F0409345020E940D1B909302
:1030600044028093430280E28C0F883040F4C770A2
:1030700081E001C0880FCA95EAF70E94F303DF914F
:10308000CF911F910F91089510914502141332C0F2
:1030900080914302909144020E94251B883C910537
:1030A00048F5C0E2CD0F1D17B9F080E2810F8830DE
:1030B00040F4177081E001C0880F1A95EAF70E946A
:1030C000FA03C83048F481E09D2F977001C0880F43
:1030D0009A95EAF70E94F303802F0E94EA03C83012
:1030E00070F6D77081E001C0880FDA95EAF70E9488
:1030F000FA03C5CF80E28C0F883008F6C77081E0F4
:1031000001C0880FCA95EAF7F2CF0F93DB0188510F
:103110009C4787309105A0F5FC01ED54FC4D0C94C3
:10312000C02206E221EE41EE6AE17CE7CD010E9479
:10313000211880E00F91089507E225EE45EE6BE13E
:103140007CE7F4CF06E221EE40EE68E17CE7EECFCB
:1031500007E225EE44EE69E17CE7E8CF06E221EEE6
:1031600042EE6CE17CE7E2CF07E225EE46EE6DE150
:103170007CE7DCCF08E221E045EE6EE17CE7D6CFCC
:1031800012968C91882319F010924502D3CF81E0DA
:10319000D1CF1F93CF93DF9387372CE7920759F056
:1031A000C1E088379C47E1F4FB01C281CC2371F177
:1031B0000E940C1906C0FB01C281CC23B1F00E9411
:1031C00009190E94D1060E940F19D82F0E940C19CC
:1031D000C82F0E9409194D2F6C2F0E94F907C0E0DB
:1031E0008C2FDF91CF911F9108950E9409190E94A1
:1031F000DD060E940F19182F0E940C19D82F0E946B
:103200000919412F6D2F0E94F907EACF0E940C196E
:10321000EECF80910C01089580910B01089580916B
:103220000A01089590939D0180939C0108959093C5
:103230004B0280934A020895E0914A02F0914B02BA
:10324000309729F00190F081E02D0995089580E0F4
:103250000895E0914A02F0914B02309799F0209145
:103260001501222359F02091700227FF07C0DC01CD
:103270002C9111962C93119726E02C930280F381C8
:10328000E02D09950895E0914A02F0914B023097A4
:1032900039F022E0DC012C930480F581E02D0995C2
:1032A0000895A3E0B0E0E7E5F9E10C94DD22209178
:1032B00048023091490228173907A1F0909349023A
:1032C00080934802E0914A02F0914B02309751F00E
:1032D00023E029839B838A830680F781E02DCE013A
:1032E000019609952396E2E00C94F922A3E0B0E060
:1032F000ECE7F9E10C94DD2220914602309147027F
:1033000028173907A1F09093470280934602E09175
:103310004A02F0914B02309751F024E029839B83BD
:103320008A830680F781E02DCE01019609952396C8
:10333000E2E00C94F922FC01329680911501882379
:1033400021F0809170029EE187FF96E080E091502D
:1033500008F4089521912223D1F38F5FF8CF6623DB
:1033600001F1209115012223F1F02091700227FF35
:103370001AC0462F4695469546954E3190F4677093
:1033800021E030E002C0220F331F6A95E2F7840F7C
:10339000911DFC01828190E02823392381E0232BB9
:1033A00069F480E00895FC01329608962191261771
:1033B00021F0E817F907D1F7F4CF81E008959C01D7
:1033C000FC0132969FEF80E04191461751F09F3FFC
:1033D00019F4411101C0982F8F5F8630A9F79F3FE4
:1033E00009F40895290F311D97FD3A95F90162837B
:1033F0000895FC01329608962191261303C0DF013F
:1034000011971C92E817F907B9F70895E62FE6958A
:10341000E695E695EE3168F4E80FF92FF11D677037
:1034200021E030E001C0220F6A95EAF78281822B09
:1034300082830895E62FE695E695E695EE3170F4E1
:10344000E80FF92FF11D677021E030E001C0220F75
:103450006A95EAF720958281282322830895209196
:103460001501222339F02091700227FF03C00E942A
:10347000061A08950E94DF1908952091150122234C
:1034800039F02091700227FF03C00E941A1A089594
:103490000E94F9190895FC01329680911501882344
:1034A00051F08091700287FF06C08EE1DF011D920E
:1034B0008A95E9F7089586E0F9CF46E050E00E944A
:1034C000182321E0892B09F420E0822F0895089524
:1034D0000E94671A0895811106C081E080934C0212
:1034E0000E94681A089582E0F9CF83E080934C022D
:1034F0000E94681A08950E946B1A089581E08093D3
:103500004C020E94681A08950E947E1A0895089538
:1035100008950E94881A0895089508950E94871AB0
:1035200008950E948C1A0E944E100E948D1A80E00D
:103530000E94A80F91E0811107C081E00E94A80FAE
:1035400091E0811101C090E0892F089585B78068CE
:1035500085BF85B7806885BF08951F921FB61F92EB
:1035600011248F939F93AF93BF9380914D0281114C
:1035700013C08091760290917702A0917802B09169
:1035800079024196A11DB11D809376029093770236
:10359000A0937802B0937902BF91AF919F918F91E0
:1035A0001F901FBE1F90189580917E02843031F1CC
:1035B0000E94C40210924D0288E190E020E40FB610
:1035C000F894A895809360000FBE2093600083B7A5
:1035D000817F846083BF83B7816083BF789488953F
:1035E00083B78E7F83BF0FB6F894A8958091600053
:1035F000886180936000109260000FBE08950E9461
:1036000053060E94C902089582E084BD93E095BDEF
:103610009AEF97BD80936E0008952FB7F89480912C
:10362000760290917702A0917802B09179022FBF33
:1036300008952FB7F8946091760270917702809187
:103640007802909179022FBF08959C014FB7F894AA
:103650008091760290917702A0917802B0917902E0
:103660004FBF821B930B089578941F921FB61F9231
:1036700011248F939F93AF93BF9380917602909183
:103680007702A0917802B09179020196A11DB11D37
:103690008093760290937702A0937802B093790298
:1036A000BF91AF919F918F911F901FBE1F90189552
:1036B00081E08093E00080E28093D8001092C900FE
:1036C0008FE19EE40197F1F700C0000087E090EBE6
:1036D000DC018093870290938802A0938902B093C3
:1036E0008A0288E19CE00FB6F894A8958093600068
:1036F0000FBE90936000FFCF88E19CE00FB6F89476
:10370000A895809360000FBE90936000FFCF8091DA
:103710006E0208959B01BA0190917E029430E9F403
:103720008F708093E9009FEF8091E800915085FDB4
:1037300006C085ED8A95F1F700009111F5CF8091D3
:10374000E80085FF0AC050E040E0C9010E94D61D94
:103750008091E8008E778093E800089543E050E080
:10376000BC0184E00E948A1B089546E050E0BC0141
:1037700084E00E948A1B0895CF93DF93EC0180912F
:103780001501811111C048E050E0BE0181E00E94A6
:103790008A1B80E2FE01AEE4B2E001900D928A95B0
:1037A000E1F7DF91CF9108958091700287FF05C006
:1037B00040E284E050E0BE01EACF48E081E0FACF89
:1037C000603231F440E250E0BC0182E00E948A1B8A
:1037D000089580917D02811109C00E94B51F0E9449
:1037E00012208091E20084608093E200089510929C
:1037F0007D0208950E947E1A089560917A0281E008
:10380000611101C080E00E94751A089590917E02B6
:1038100081E0943009F080E060917A020E947B1A86
:10382000089542E061EC81E00E94311F42E261ECC8
:1038300084E00E94311F42E261EC82E00E94311F6D
:1038400042E260EC83E00E94311F90917E0281E0B1
:10385000943009F080E060917A020E946B1A08951A
:1038600080918002833009F463C030F48130E1F14B
:10387000823009F4A0C008958A3009F48CC08B30DE
:1038800009F471C0893009F052C080917F02813201
:1038900009F04DC08091830290918402009719F045
:1038A000029709F044C08091E800877F8093E80088
:1038B0008091E80082FF37C09091F3008091F20080
:1038C000029731F48091F100813011F0863021F4BB
:1038D0008091F10080936E028091E8008B77809355
:1038E000E8000E94651F23C080917F02813AF9F4AD
:1038F0008091E800877F8093E80080918302909117
:103900008402892B61F460E28EE492E070E00E9410
:10391000741E8091E8008B778093E800089560E042
:1039200090E080E0F3CF80917E028111C1CF0895B5
:1039300080917F02813AD9F780918302909184022D
:10394000892BA9F78091E800877F8093E800809118
:10395000E80080FFFCCF809115018093F1008091F9
:10396000E8008E77BCCF80917F02813201F7809191
:10397000830290918402892BD1F68091E800877FA1
:103980008093E8000E94651F809181028093150159
:103990000E945306089580917F02813241F6809102
:1039A000E800877F8093E8000E94651F8091820273
:1039B00080936F02089580917F02813A09F0B7CF1A
:1039C0008091E800877F8093E8008091E80080FF85
:1039D000FCCF80916F02C1CF84B7877F84BF0FB6C1
:1039E000F894A8958091600088618093600010929F
:1039F00060000FBE80E890E00FB6F89480936100FD
:103A0000909361000FBE0E94841A08950E94B51F12
:103A10000E941220E2EEF0E080818460808378943E
:103A20000E94912208958DE091E00E941719089557
:103A300080917E02853031F480917E02853019F0CC
:103A40000E94FF1A08950E94D41A80917C02882354
:103A500099F30E94911A882379F30E94C01D0E9455
:103A60005306EACFA0E2B0E0E8E3FDE10C94DD22EA
:103A700080917E02843009F583E08093E900809193
:103A8000E80082FF1AC08091E80090E085FF09C03D
:103A900050E040E060E270E0CE0101960E94251EF9
:103AA00091E08091E8008B778093E800992329F0DA
:103AB00060E2CE0101960E94E113A096E2E00C9430
:103AC000F9229A0140918502509186020E94691D57
:103AD0000895492F55274330510521F168F44130AD
:103AE000510509F443C04230510509F444C090E047
:103AF00080E050E040E026C04132510551F14232B1
:103B00005105A9F76330710590F7FB01EE0FFF1F18
:103B1000E057FE4F4081518163577E4FFB0180810A
:103B200090E010C099278130910581F0009729F02D
:103B30000297E9F6ECE8F1E002C0EAEBF1E08491EB
:103B400090E0AF01F901518340830895E6EAF1E086
:103B5000F6CF6330710558F6660F771FFB01EA5602
:103B6000FE4F4081518189E090E0ECCF82E190E00E
:103B700049E152E0E7CF8BE590E04EEB51E0E2CF38
:103B800080E189BD82E189BD09B400FEFDCF80914D
:103B9000D8008F7D8093D8008091E0008260809370
:103BA000E0008091E00081FDFCCF0895AF92BF92CC
:103BB000CF92DF92FF920F931F93CF93DF936C010D
:103BC000EB018A010E94841FF82E811123C0011588
:103BD000110539F0F80180819181C81BD90BC80EFD
:103BE000D91EB12CA12C2097A9F08091E80085FD69
:103BF00022C08091E8008E778093E80001151105BE
:103C0000A1F0F80180819181A80EB91EB182A08235
:103C100085E0F82E8F2DDF91CF911F910F91FF90AE
:103C2000DF90CF90BF90AF9008950E94841F8823AB
:103C3000D1F2F82EEFCFF60181916F018093F10060
:103C40002197FFEFAF1ABF0ACECFAF92BF92CF92AC
:103C5000DF92FF920F931F93CF93DF936C01EB01E1
:103C60008A010E94841FF82E811123C001151105BD
:103C700039F0F80180819181C81BD90BC80ED91E7B
:103C8000B12CA12C2097A9F08091E80085FD22C0DD
:103C90008091E8008B778093E80001151105A1F071
:103CA000F80180819181A80EB91EB182A08285E0C1
:103CB000F82E8F2DDF91CF911F910F91FF90DF9004
:103CC000CF90BF90AF9008950E94841F8823D1F2B7
:103CD000F82EEFCF8091F100F60181936F012197CB
:103CE000FFEFAF1ABF0ACECFFC0180918502909101
:103CF000860286179707A0F06115710529F4909147
:103D0000E8009E779093E80090E06115710551F40A
:103D1000911108C08091E80082FF34C080E00895CE
:103D2000BC01F2CF80917E028823C1F18530C1F1C0
:103D30008091E80083FD30C08091E80082FDEACFE9
:103D40008091E80080FFE1CF8091F3002091F200A4
:103D5000382F6115710519F02830310558F091E0C0
:103D60002830310509F090E02091E8002E7720936B
:103D7000E800CBCF81918093F100615071092F5FF2
:103D80003F4FE7CF80917E02882341F0853041F09C
:103D90008091E80083FFBECF81E0089582E008951E
:103DA00083E00895FC018091850290918602861738
:103DB0009707A0F06115710529F48091E8008E77CE
:103DC0008093E80090E06115710551F4911108C0ED
:103DD0008091E80082FF35C080E00895BC01F2CFF9
:103DE00080917E028823C9F18530C9F18091E80075
:103DF00083FD31C08091E80082FDEACF8091E80028
:103E000080FFE1CF8091F3002091F200382F6115FF
:103E1000710519F02830310558F091E0283031054E
:103E200009F090E08091E8008E778093E800CBCF96
:103E300084918093F1003196615071092F5F3F4F5B
:103E4000E6CF80917E02882341F0853041F0809159
:103E5000E80083FFBDCF81E0089582E0089583E00C
:103E60000895982F973028F08F708093E90081E0B3
:103E700008959093E900242F762F50E0981731F0A1
:103E80007091EC002091ED005091F00021FD02C0F6
:103E90009F5FE8CF3091EB003E7F3093EB00309195
:103EA000ED003D7F3093ED003091EB0031603093B9
:103EB000EB007093EC002093ED005093F000209104
:103EC000EE0027FDE5CF80E0089580917F0287FF17
:103ED00013C08091E80082FF06C08091E8008B77D4
:103EE0008093E80004C080917E028111F2CF089592
:103EF00080917E028823D9F38091E80080FFF8CF7B
:103F00008091E8008E77ECCF2091E4003091E500BD
:103F100095E6A9012091EC00822F817020FF06C058
:103F20008091E80080FF06C080E008952091E800BD
:103F300022FD1AC080917E02882389F0853089F0A5
:103F40008091EB0085FD0FC02091E4003091E500E9
:103F500042175307F9F29150E1F684E0089582E0A8
:103F6000089583E0089581E008950E9424200E942E
:103F70002C20E0EEF0E0808181608083E8EDF0E0CD
:103F800080818F77808319BCA7EDB0E08C918E7F04
:103F90008C9380818F7E808310927D0208950F9391
:103FA0001F93CF93DF930E9424200E942C20C8ED02
:103FB000D0E088818F778883888180688883888132
:103FC0008F7D888319BC10927E0210927A02109223
:103FD0007C0210927B0200EE10E0F80180818B7F62
:103FE000808388818160888342E060E080E00E9475
:103FF000311FE1EEF0E080818E7F8083E2EEF0E021
:10400000808181608083808188608083F8018081E5
:104010008E7F8083888180618883DF91CF911F911B
:104020000F910895E8EDF0E080818F7E8083E7EDC9
:10403000F0E080818160808384E082BF81E08093B2
:104040007D020E94CF1F0895E8EDF0E080818E7F11
:1040500080831092E20008951092DA001092E1003D
:1040600008951F920F920FB60F9211242F933F9332
:104070004F935F936F937F938F939F93AF93BF9370
:10408000EF93FF938091E10082FF0BC08091E200EB
:1040900082FF07C08091E1008B7F8093E1000E9446
:1040A00090228091DA0080FF19C08091D80080FFB3
:1040B00015C08091DA008E7F8093DA008091D9005C
:1040C00080FF96C080E189BD82E189BD09B400FE10
:1040D000FDCF81E080937E020E94E91B8091E10088
:1040E00080FF19C08091E20080FF15C08091E2003E
:1040F0008E7F8093E2008091E20080618093E200F5
:104100008091D80080628093D80019BC85E08093AC
:104110007E020E94FD1B8091E10084FF2BC08091F4
:10412000E20084FF27C080E189BD82E189BD89B5B5
:10413000982F917080FFFBCF8091D8008F7D809366
:10414000D8008091E1008F7E8093E1008091E200B1
:104150008F7E8093E2008091E20081608093E20094
:1041600080917A02882309F449C084E080937E021A
:104170000E94061C8091E10083FF29C08091E2002B
:1041800083FF25C08091E100877F8093E10082E07A
:1041900080937E0210927A028091E1008E7F80935C
:1041A000E1008091E2008E7F8093E2008091E20046
:1041B00080618093E20042E060E080E00E94311F75
:1041C0008091F00088608093F0000E94FA1BFF91BC
:1041D000EF91BF91AF919F918F917F916F915F917F
:1041E0004F913F912F910F900FBE0F901F901895F8
:1041F00019BC10927E020E94F71B70CF8091E300E1
:1042000087FD93E090937E02B3CF1F920F920FB67B
:104210000F9211242F933F934F935F936F937F934C
:104220008F939F93AF93BF93CF93DF93EF93FF93BE
:10423000D091E900DF708091EC00C82FC17080FD43
:10424000C0E81092E9008091F000877F8093F00031
:1042500078940E9449211092E9008091F0008860D2
:104260008093F000CD2BCF70C093E900FF91EF91C8
:10427000DF91CF91BF91AF919F918F917F916F917E
:104280005F914F913F912F910F900FBE0F901F9014
:104290001895AAE2B0E0EFE4F1E20C94DC228FE79B
:1042A00092E02091F100FC012193CF01F2E08738E8
:1042B0009F07B9F70E94301C8091E80083FF1EC160
:1042C00080917F02909180029A3008F017C1E92F07
:1042D000F0E0E654FC4D0C94C022803899F082380E
:1042E00009F00CC1809183028F70873008F006C1FD
:1042F0008093E9008091EB0085FB882780F910927C
:10430000E90006C080917B0290917C02911182604D
:104310009091E800977F9093E8008093F1001092CD
:10432000F1008091E8008E77E5C0882309F4D3C0BE
:10433000823009F0E3C0809181028111D6C0809162
:1043400083028F702FEF280F263008F0D7C080939C
:10435000E9002091EB0020FFC8C0933031F4809138
:10436000EB0080628093EB00C0C09091EB00906105
:104370009093EB0021E030E001C0220F8A95EAF72C
:104380002093EA001092EA008091EB008860EACF67
:104390008111B4C0109181021F778091E300807871
:1043A000812B8093E3008091E800877F8093E80071
:1043B0000E94651F8091E80080FFFCCF8091E300A0
:1043C00080688093E30082E0111183E080937E0295
:1043D00095C08058823008F091C080918102909100
:1043E00082028C3D23E09207A1F583E08A838AE272
:1043F00089834FB7F894DE01139620E03EE051E246
:10440000E32FF0E050935700E49120FF03C0E295C2
:10441000EF703F5FEF708E2F90E0EA30C0F0C796EC
:104420008D939D932F5F243159F74FBF8091E80002
:10443000877F8093E8006AE270E0CE0101960E94D7
:10444000741E8091E8008B778093E80057C0C09677
:10445000E7CF6091830270918402AE014F5F5F4F9E
:104460000E94611DBC01892B09F448C09091E800AD
:10447000977F9093E80089819A810E94D21EE1CFB4
:104480008038E1F58091E800877F8093E800809193
:104490007A028093F10045CF811130C09091810262
:1044A000923060F58091E800877F8093E8009093D8
:1044B0007A020E94651F80917A02882311F084E0BD
:1044C00005C08091E30087FDFACF81E080937E02F2
:1044D0000E94111C13C080918102813079F481E027
:1044E000933009F080E080937C021092E900809183
:1044F000E800877F8093E8000E94651F8091E800B4
:1045000083FF0AC08091E800877F8093E800809154
:10451000EB0080628093EB00AA96E3E00C94F82213
:104520000895CF9380917E028823A1F0C091E90085
:10453000CF709091EC00892F817090FD80E8C82B9E
:104540001092E9008091E80083FD0E944921CF701C
:10455000C093E900CF91089597FB072E16F40094BD
:1045600007D077FD09D00E94042307FC05D03EF454
:10457000909581959F4F0895709561957F4F08950F
:10458000EE0FFF1F0590F491E02D099469279627FF
:10459000692778278727782708952F923F924F928F
:1045A0005F926F927F928F929F92AF92BF92CF92C3
:1045B000DF92EF92FF920F931F93CF93DF93CDB7CC
:1045C000DEB7CA1BDB0B0FB6F894DEBF0FBECDBF44
:1045D00009942A88398848885F846E847D848C8415
:1045E0009B84AA84B984C884DF80EE80FD800C811E
:1045F0001B81AA81B981CE0FD11D0FB6F894DEBF01
:104600000FBECDBFED010895AA1BBB1B51E107C032
:10461000AA1FBB1FA617B70710F0A61BB70B881F52
:10462000991F5A95A9F780959095BC01CD010895E1
:10463000FB01DC0104C08D910190801921F44150EF
:104640005040C8F7881B990B0895FB01DC0102C09C
:1046500001900D9241505040D8F70895F999FECF3E
:1046600092BD81BDF89A992780B50895A8E1B0E080
:1046700042E050E00C946223262FF999FECF92BDC0
:1046800081BDF89A019700B4021639F01FBA20BD17
:104690000FB6F894FA9AF99A0FBE08950396272F49
:1046A0000E943D230E943C23252F0E943D23242F5E
:1046B0000C943D230196272F0E943D230C943C230C
:1046C000DC01CB01FC01F999FECF06C0F2BDE1BDD2
:1046D000F89A319600B40D9241505040B8F70895C1
:1046E000F894FFCF40044004910491040405200590
:1046F0006F046F0425058C059B059B05F6130214BA
:1047000038144A14551460146314631463140814A1
:10471000081468146C14741481148E149114941475
:10472000A11406157A150E15D814DC141215E01410
:1047300016152215EC147315F0142615F4142A1509
:104740005215F8142E155915FE1434153C15E414A1
:104750001A15E8141E15021538154815621571153D
:10476000D2140A158115A218A81891189C18AE1811
:10477000B418BA186D2195217E2295217E22C82178
:08478000E9217E2240224C22B7
:104788000302280850011E0A1401030201871BBCFA
:104798001BB51BAE1B01E200E900EA00B500B6003C
:1047A800B700CD008301CC008A0192019401210257
:1047B800230224022502260227022A02B300B4009B
:1047C8006F0070009F01CB019F02A002818283E2EB
:1047D80000E900EA00B500B600B700CD008301CCBF
:1047E800008A019201940121022302240225022653
:1047F8000227022A02B300B4006F0070009F01CBA9
:10480800019F02A002818283F4F5F694664022B6E5
:0C48180003032B024D02D001E90109024C
:00000001FF
