:100000000C94A4010C94DC010C94DC010C94DC0134
:100010000C94DC010C94DC010C94DC010C94DC01EC
:100020000C94DC010C94DC010C94A6200C94792136
:100030000C942F1B0C94DC010C94DC010C94DC015F
:100040000C94DC010C94DC010C94DC010C94DC01BC
:100050000C94DC010C94B61B0C94DC010C94DC01B8
:100060000C94DC010C94DC010C94DC010C94DC019C
:100070000C94DC010C94DC010C94DC010C94DC018C
:100080000C94DC010C94DC010C94DC010C94DC017C
:100090000C94DC010C94DC010C94DC010C94DC016C
:1000A0000C94DC010C94DC010C94DC0104000500D0
:1000B00006002252090021521E001F0020002200CB
:1000C000230021002400250026001E001F00270019
:1000D00004000500060008000900070000000000F9
:1000E000000000002A2B2800000000000000000093
:1000F0000000000000000029000000002C1E342039
:10010000212224342627252E362D3738271E1F205E
:100110002122232425263333362E37381F040506A3
:100120000708090A0B0C0D0E0F10111213141516E7
:100130001718191A1B1C1D2F3130232D35040506E5
:100140000708090A0B0C0D0E0F10111213141516C7
:100150001718191A1B1C1D2F3130354C00000000D8
:10016000000000000000000000000000000000008F
:10017000000000000000000000000000000000007F
:100180007E0F00D4FFFFFFC700000078180369004E
:1001900073006F00670069006E0063006800610013
:1001A0006B00360000001203730061006D00310027
:1001B0006400610072006500000004030904090284
:1001C0005B00030100A0FA09040000010301010023
:1001D00009211101000122440007058103080001E3
:1001E000090401000203000000092111010001229D
:1001F00022000705820320000107050303200001F8
:10020000090402000103000000092111010001227C
:10021000B60007058403200001120100020000005F
:1002200008313A02000101010200010660FF096184
:10023000A1010962150026FF0095207508810209B9
:1002400063150026FF00952075089102C00501097D
:1002500002A10185020901A100050919012908155A
:100260000025019508750181020501093009311544
:1002700081257F95027508810609381581257F95AE
:100280000175088106050C0A38021581257F950144
:1002900075088106C0C005010980A1018503190107
:1002A0002AB700150126B700950175108100C00519
:1002B0000C0901A101850419012AA002150126A03B
:1002C00002950175108100C005010906A10185068E
:1002D000050719E029E71500250195087501810238
:1002E0000507190029EF1500250195F07501810218
:1002F00005081901290595057501910295017503F8
:100300009101C005010906A101050719E029E715BA
:100310000025019508750181029501750881010587
:1003200007190029FF150026FF00950675088100B2
:10033000050819012905150025019505750191028A
:10034000950175039101C00011241FBECFEFDAE0C3
:10035000DEBFCDBF04B603FE18C080918702909126
:100360008802A0918902B0918A028730904BA74001
:10037000B04B59F4109287021092880210928902B1
:1003800010928A02E0E0F8E3099511E0A0E0B1E004
:10039000E4ECF8E402C005900D92AA39B107D9F750
:1003A00022E0AAE9B1E001C01D92A738B207E1F747
:1003B0000E94BF100C94FB230C9400008430C0F406
:1003C0006230B0F44330A0F470E0FB01EE0FFF1F89
:1003D000E60FF71FE40FF11D96E0899FE00DF11D78
:1003E0001124EE0FFF1FE455FF4F8591949108955E
:1003F00081E090E0089581E008950E94FB01089556
:1004000081E0089581E008950E9402020895089510
:100410000E9407020895A6E0B0E0E1E1F2E00C944A
:10042000572349835A839E833091A10189819A8100
:1004300031111AC03E81311599F0211589F00E94C1
:100440009007182F682F89819A810E946707698118
:100450007A81812F0E94970E2696E3E00C947323F5
:100460000E947B07182FF3CF0E94900769817A8141
:10047000F1CFFC01262F40815181628173818481FB
:1004800095810E940B020895CF93DF93D82FC92F37
:1004900061E00E9439026D2F7C2F0E94FD01DF91E7
:1004A000CF910895CF93DF93D82FC92F60E00E949A
:1004B00039026D2F7C2F0E940802DF91CF910895A1
:1004C00081E008950E9460020895CF93C82F0E9492
:1004D00055068C2F0E9462022FEF84E39CE021508E
:1004E00080409040E1F700C00000CF91089581E086
:1004F0000E9465020E94DA1B089580E00E94650256
:100500000E94FE1B08950F931F93CF93DF938C01DE
:1005100061E00E943902EC01B8010E945718811570
:1005200009F442C0B801CE010E9404028115E1F134
:10053000B801CE010E9471178115B1F1B801CE0149
:100540000E94B612811581F1B801CE010E948B1272
:10055000811551F1B801CE010E94B317811521F127
:10056000F8018581811581F0CA35FCE7DF0739F193
:1005700078F4C130ECE7DE07F9F0C330FCE7DF07C1
:10058000C9F0C115DC4771F0C8010E9400020DC01E
:10059000CB35ECE7DE07B1F0CC35DC47A9F70E949C
:1005A000DD0BF2CF0E94770280E0DF91CF911F91A7
:1005B0000F9108950E94EE0B0E947D02F5CF0E94DC
:1005C000E60BE2CF0E94EA0BDFCF0E940A1B0E94DB
:1005D000050308950E9409030E940F1B089581E0FE
:1005E00008950895CF93DF93D82F0E94EF02C82F6C
:1005F000811519F08D2F0E94F1028C2FDF91CF9180
:10060000089508950E94F202089580E00E94020376
:1006100008950E9445190E9402030895CF930E94F5
:100620004519C82F80919C018C1779F0C0939C01CB
:100630000E949B1B60939D0170939E0180939F017C
:100640009093A0018C2F0E940203CF910895ADE0FA
:10065000B0E0EDE2F3E00C945823488759876A87AD
:100660007B878C879D8791110E94E90A1F8286E013
:10067000FE013896DE01119601900D928A95E1F700
:100680008D8181110DC029813A814B815C816D8101
:100690007E818F810E94330A2D96E2E00C947423B0
:1006A000CE0101960E9444028111EDCFF5CFFC01ED
:1006B0008481813021F4808191810E94B90708955D
:1006C000611529F00E941C140E94DD1408950E94F7
:1006D0006514FACFCF93C82F811599F08CEF8C0F4A
:1006E000813A88F48C2F0E94E919811529F08C2F0A
:1006F0000E948E1A0E947F0B8C2F0E94771A0E94F4
:100700007F0BCF91089580E28C0F883048F4C7703A
:1007100081E001C0880FCA95EAF70E94CA0AEFCFAC
:100720008BE58C0F833038F42C2F2452330BC90106
:100730000E947B19E6CFE8E5EC0FEB3150F4F0E0D6
:10074000EE0FFF1FE65EFE4F808191810E94A1198E
:10075000D8CF83E38C0F8331A0F661E08C2F0E9409
:100760006003CFCF811581F19CEF980F913A28F467
:100770000E948E1A0E947F0B089590E2980F983085
:1007800050F4877091E001C0990F8A95EAF7892F9C
:100790000E94D00AEFCF9BE5980F933028F480E0B9
:1007A00090E00E947B19089598E5980F9B3128F4FA
:1007B00080E090E00E94A119089593E3980F93318F
:1007C00018F460E00E94600308950F931F93CF9385
:1007D000C82F8B010E946A030115110539F48C2F73
:1007E0000E94B203CF911F910F9108958FE99FE06E
:1007F0000197F1F700C0000001501109EDCF60E54D
:1008000070E0893311F060E070E00E94E503089524
:10081000811521F00E94CA0A0E947F0B089581155C
:1008200021F00E94D00A0E947F0B0895A0E0B0E062
:10083000ECE1F4E00C9452236C01D62FC72FFC019D
:100840001581068102950F700E94BF0AE82E81155E
:10085000F9F0E12E1115E1F08C2F807F803461F0EA
:1008600080E28D0F8830F0F08C2F807E803221F472
:10087000D230C0F00115B1F08091710282FF12C038
:1008800082E00E94B00B0E94BF0A91E0E82EE926A8
:10089000EC2FE295EF70C03CB0F5F0E0E350FC4D7A
:1008A0000C943B23E12CF4CF0C2F0F70C03110F0CF
:1008B0000295007F111599F0011559F080E28D0F16
:1008C000883010F0D11107C0802F0E94CA0A0E9400
:1008D0007F0B8D2F51C0802F0E94DB0AF8CF8D2F08
:1008E0000E94B203011579F080E28D0F883010F07C
:1008F000D11104C0802F0E94D00A03C0802F0E9413
:10090000E10A0E947F0BE11489F00E94BB0A80FD7E
:100910000DC0F60115820E94B50A0E94D606C601D6
:100920000E941C060E94B50A0E94E206CDB7DEB7FF
:10093000E8E00C946E23FC2FFF70FF2EC07FC032C6
:1009400019F0F29480EFF822D11541F0D130D1F1B5
:10095000111509F444C00115F1F0BBCF809171026B
:1009600082FD15C0111559F0F11429F08F2D0E9448
:10097000CA0A0E947F0B80E00E946A03C4CF80E015
:100980000E94B203F11409F4BECF8F2DB4CF11151C
:1009900069F0011104C08F2D0E940804B4CF01300A
:1009A00009F0B1CF8F2D0E94010BADCF0111ABCF5C
:1009B0008F2D0E940F048F2D0E940D0B8F2D0E94F2
:1009C000F00AA1CF111521F0063008F09CCFE3CF3B
:1009D000053008F098CF8F2D0E940F0494CF011599
:1009E000D1F3D93349F42FEF87EE93E021508040C3
:1009F0009040E1F700C000008D2F0E94B20383CF2A
:100A00008C2F869586958370811569F0813009F069
:100A10007ACF8D2F9C2F9370111102C080E090E04F
:100A20000E94A11970CF8D2F9C2F9370111102C0BD
:100A300080E090E00E947B1966CF612F8D2F0E948D
:100A4000600361CF8C2F8370811134C0111124C0D9
:100A50004D2F429546954770440F440F8D2F8F7050
:100A6000042E01C0880F0A94EAF72D2F2071D4FFBD
:100A700007C02FE030E001C0220F4A95EAF7209529
:100A8000C695C695C370822BC23071F0C33079F021
:100A9000C13039F00E94B2060E9445190E9402033B
:100AA00032CF0E94AC06F8CF0E94B806F5CF0E9464
:100AB000A906F2CF111539F1C0FFEECF4D2F4295A7
:100AC00046954770440F440F8D2F8F70042E01C040
:100AD000880F0A94EAF72D2F2071D4FF07C02FE06A
:100AE00030E001C0220F4A95EAF72095C695C695D9
:100AF000C370822BC23069F0C33071F0C13031F065
:100B00000E940407C9CF823038F2D8CF0E94FE0677
:100B1000C3CF0E940A07C0CF0E94C406BDCFCF70CA
:100B2000111539F08C2F0E94D6068D2F0E940804D3
:100B3000B3CF8D2F0E940F048C2F0E94E206ACCF02
:100B4000D23F41F170F4D03FC9F0D13F91F011157F
:100B500009F446C0011509F440C08D2F0E946A03B4
:100B60009BCFD33FF1F0D43F91F78091710282FD8A
:100B700022C08C2F8F71111501F310C0111541F097
:100B8000053008F089CF8C2F8F710E94F20684CF38
:100B90000630F7CF8C2F8F711111CFCF0E94D60660
:100BA0007BCF111529F08C2F8F710E94CD0674CF49
:100BB0000E94C90671CF111531F063E08C2F8F713F
:100BC0000E94910B69CF81E00E94B00B023008F4C3
:100BD00063CF82E00E94B00B5FCF8C2F8F71DECF8E
:100BE000011579F0D93349F4EFEFF7EE23E0E15046
:100BF000F0402040E1F700C000008D2F0E94B203BA
:100C00004BCF8C2F8F7199CF0F931F93CF93DF937F
:100C1000EC01688179818D810E94C6078C010E9458
:100C200010070E94A806B801CE010E941604DF91A9
:100C3000CF911F910F910895CF93DF93EC018C8199
:100C4000811599F0CE010E948302811111C00E948A
:100C5000BF0A811551F08D81811539F080917102A3
:100C600082FF03C082E00E94B00BDF91CF91089514
:100C7000CE010E940406CE010E945202F6CF80E00F
:100C800090E00E947B1980E090E00E94A1190E94F0
:100C9000E90A0E947F0B0E94FA140E94DD14089555
:100CA0000E94A51A0E943F0608950E94D80A0E9439
:100CB00050060895282F92959F70963099F060F411
:100CC000925F9F70923030F4203FB1F038F481E0B1
:100CD000283E38F080E008959A5FF3CF81E0243F0A
:100CE000C9F7089591E0813F09F090E081E0283E46
:100CF00008F080E0892B089581E00895FC0184814B
:100D0000811539F0808191810E94B9070E945A06AD
:100D1000089580E00895A6E0B0E0E1E9F6E00C94E3
:100D200058232696E2E00C947423A7E0B0E0EBE9A8
:100D3000F6E00C9458232796E2E00C94742308956F
:100D40000E949F0608950E94A0068093A601089520
:100D500008950E94A30608959091A601892B0E94F0
:100D6000A30608959091A60189230E94A3060895E1
:100D70009091A60189270E94A30608950E949F06CC
:100D800008950E94BE0608950E94C1068093A501A1
:100D9000089580E00E94C406089591E001C0990F73
:100DA0008A95EAF7892F0E94C406089521E030E071
:100DB00001C0220F8A95EAF78091A501822B0E943B
:100DC000C406089521E030E0A90102C0440F551F78
:100DD0008A95E2F7CA0180959091A50189230E9426
:100DE000C406089521E030E001C0220F8A95EAF799
:100DF0008091A50182270E94C40608959091A501C3
:100E0000892B0E94C40608959091A50189230E9410
:100E1000C40608959091A50189270E94C4060895EB
:100E200008959B01677091E001C0990F6A95EAF7F8
:100E300063E0369527956A95E1F7B901660F771F4C
:100E4000260F371FFA01E20FF31F40E050E0682F32
:100E500070E08191DF019B01042E02C03695279539
:100E60000A94E2F7217021952827292328272E9319
:100E70004F5F5F4F4330510561F708959C01A82FE4
:100E8000A77083E0369527958A95E1F7C901880F09
:100E9000991F820F931FFB01E80FF91F40E050E0FC
:100EA00080E0219130E00A2E02C0369527950A9401
:100EB000E2F721703327042E01C0220F0A94EAF7CB
:100EC000822B4F5F5F4F4330510559F70895482FEC
:100ED000862F923078F4433068F4292F30E0B9013E
:100EE000660F771F620F731F640F711D42EA51E096
:100EF0000E9411070895482F923080F4833070F4D7
:100F0000292F30E0C901880F991F820F931F62EAD1
:100F100071E0840F911D0E943E07089580E00895BE
:100F2000A0E0B0E0E6E9F7E00C9453237C010091E7
:100F3000A5018091A601082BC3E0D0E010E0C80114
:100F40000C2E02C0959587950A94E2F780FD09C0A2
:100F50002197A8F7D12C8D2DCDB7DEB7E7E00C9403
:100F60006F23DC2EB7018C2F0E94A30E019781F313
:100F7000F2CFCF93DF93D82FC92F0E9490076D2F08
:100F80007C2F0E94A30EDF91CF9108951F93CF93E2
:100F9000DF93162FD72F9091A101911541F0862F45
:100FA000972F0E94B907DF91CF911F910895811566
:100FB00081F0862F972F0E949007C82F682F812FCE
:100FC0009D2F0E946707612F7D2F8C2F0E94A30EFB
:100FD000EACF862F972F0E947B07C82FF4CFE1E03E
:100FE000F0E0DF0102C0AA0FBB1F6A95E2F7BD0166
:100FF000DF0102C0AA0FBB1F4A95E2F76A2B01C0AE
:10100000EE0F2A95EAF7962F9823961302C08E2B9F
:101010000895E0958E230895242F462F682F809100
:10102000A5010E94EF070E94C40608950F931F9325
:10103000CF93E091A701C7E08091A8018E1304C06F
:10104000CF911F910F9108950E2F10E0CE9FF001C8
:101050001124E755FE4F2081318142815381648103
:10106000758186810E949506F8013196E770E4CF7C
:101070002091E1013091E2014091E3015091E401BE
:101080006091E5017091E6018091E7010E9495066B
:1010900008958091E701803178F48091E60181150F
:1010A00059F0E091A7012091A8013091E20140910F
:1010B000E10157E02E1301C008956E2F70E05E9F8E
:1010C000F0011124DF01A755BE4F14968C9114979F
:1010D000811561F111968C911197831327C08C9122
:1010E000841324C015968C91159781111FC01296F8
:1010F0008D919C91A091E301B091E4018A1B9B0B1F
:10110000883C910598F48091E7018F70806180930D
:10111000E701E155FE4F80818F708061808381EE11
:1011200091E00E941C060E9416080895FB0131966A
:10113000E770C0CFE091A7019091A80127E0E913E3
:1011400002C080E00895AE2FB0E02E9FF001112480
:10115000E755FE4F3181361306C03081381303C086
:101160003581341304C0FD013196E770E8CF81E08A
:1011700008958F929F92AF92BF92DF92EF92FF926B
:101180000F931F93CF93DF93CDB7DEB72D970FB695
:10119000F894DEBF0FBECDBF8C0186E0F801DE0102
:1011A000189601900D928A95E1F7F801F5808481F7
:1011B00091EE892E91E0992E9091E50191111BC03D
:1011C000811509F4FFC0F11409F440C1C8010E945F
:1011D0007E06811509F43AC187E0F801D401019037
:1011E0000D928A95E1F7C4010E9457030E944908B5
:1011F0000E943808E7C0E080A280B380D090E6016A
:101200002091E3013091E401A501421B530BD1145D
:1012100009F4DBC0483C510508F0A6C0811509F46B
:10122000D1C09091E20191808091E701803108F076
:101230006BC0991228C09091E1019E1124C0F11059
:101240005DC08F7080618093E7010E94380881EE55
:1012500091E00E941C068091E701F8018683F12C41
:101260008F2D2D960FB6F894DEBF0FBECDBFDF9148
:10127000CF911F910F91FF90EF90DF90BF90AF90B3
:101280009F908F900895F11039C040E0692D8E2D08
:101290000E949A0840E0692D8E2D0E949A08F82E2F
:1012A0008111DDCF888599850E94B907292F229564
:1012B0002F70903450F49F70223080F0911599F087
:1012C000F8019681903178F4CBCF2A5F2F702230CD
:1012D00078F0C8010E941C06FD2CC2CF911519F0B0
:1012E000811509F4BDCF805E883008F4B9CFF1CF05
:1012F000803F08F4B5CF815F8330F7CF8091E7015D
:1013000081608093E701ABCF991207C09091E10112
:101310009E1103C0F11409F479C0C8010E947E0631
:10132000811509F493C0F11409F490C08091E7018C
:10133000803288F02091E1013091E2013A832983E3
:10134000BC82AB829091E5019D831E828F83CE018A
:1013500001960E941C0687E0F801A1EEB1E0019021
:101360000D928A95E1F742CF9091E7019031A0F478
:10137000488559856A857B858C859D850E948B066D
:1013800081EE91E00E941C0687E0F40111928A959B
:10139000E9F70E94380863CF8115A1F02091E2019E
:1013A00081812813BACF8091E1018E11B6CFF1105F
:1013B000B4CF9683C8010E941C0687E0F401119205
:1013C0008A95E9F7FF24F3944BCF483C510508F088
:1013D00041C08115B9F3F114C9F19091E201818105
:1013E00098132AC08091E1018E1126C08091E701F7
:1013F00080FD19C08031B8F08683807F803F39F04E
:101400008681982F907F905F8F70892B8683C8018B
:101410000E941C0687E0F801A1EEB1E001900D9258
:101420008A95E1F7E5CE87E0F801A1EEB1E0019001
:101430000D928A95E1F7C6CFC8010E947E06811100
:101440008ACF8091E70181608093E701C8010E9403
:101450001C06B8CF488559856A857B858C859D8516
:101460000E948B0691CFAEE0B0E0E9E3FAE00C9485
:101470005723288739874A875B876C877D878E87C4
:10148000CE0108960E94B9086C858115A9F06115F6
:1014900041F0288539854A855B857D858E850E944A
:1014A000950617E08091A7019091A80189133AC091
:1014B0002E96E3E00C94732387E0FE013896DE015C
:1014C000119601900D928A95E1F7611551F3A09163
:1014D000A8018A2F90E00196877099272091A70193
:1014E0002817190689F097E09A9FD0011124A75573
:1014F000BE4FFE01319601900D929A95E1F78093CF
:10150000A8010E941608CDCF0E9455061092A8018E
:101510001092A70187E0E1EEF1E0DF011D928A95CC
:10152000E9F7BFCF189FC001112487559E4F0E9435
:10153000B908811509F4BCCFE091A7011E9FF00105
:101540001124E755FE4F208131814281538164810E
:10155000758186810E9495068091A70190E0019691
:10156000877099278093A7019DCF8091100286955F
:1015700086958695089580911002877008959091C0
:101580001002977081E0911101C080E00895809170
:101590003C02089590913C02982B90933C02089550
:1015A000982F909580913C02892380933C02089566
:1015B00010923C02089590913B02982B90933B022D
:1015C0000895982F909580913B02892380933B0248
:1015D000089510923B02089508950E94EC0A089520
:1015E00090911102292F2823211531F0809589230C
:1015F000809311020E94ED0A089508950E94FD0A49
:10160000089590911202292F2823281729F0982B4A
:10161000909312020E94FE0A089590911202292FBF
:101620002823211531F080958923809312020E948E
:10163000FE0A089580911202811529F0109212027B
:1016400080E00E94FE0A0895CF93C0913C028091F1
:101650003B02C82B80911202811531F0C82B0E94E9
:10166000C71981110E941A0B8C2FCF910895CF9327
:10167000DF93C0910201D09103010E94240B888363
:10168000C0910201D091030148E050E068E072E0AF
:10169000CE010E949323892B59F088E0FE01A8E037
:1016A000B2E001900D928A95E1F7CE010E945219A5
:1016B000DF91CF910895CF93DF93C0910001D09136
:1016C00001010E94240B8983C0910001D091010186
:1016D00040E250E068EE71E0CE010E949323892B36
:1016E00059F080E2FE01A8EEB1E001900D928A95DA
:1016F000E1F7CE010E945D19DF91CF9108958091AD
:101700001901811539F08091700287FF03C00E9492
:101710005B0B08950E94370B089508950E948D0B6E
:101720000895962F2091710222FF11C0682F660F35
:10173000660F660F692B609310020E94D606809197
:1017400010028695869586950E948E0B08950E94BC
:10175000D60608951092100280E00E948E0B089524
:10176000909110028095892380931002282F277072
:1017700021110DC0891759F09091710292FF07C095
:101780008695869586950E94E2060E94AA0B08958A
:101790009091710292FB222720F9281769F080FBB3
:1017A00092F99093710280917002909171020E945F
:1017B000100C82E00E94B00B089580917102002409
:1017C00082FF0394802D0E94C80B089581E00E943F
:1017D000C80B089580E00E94C80B08956FEF7FEF5B
:1017E00080E090E00E94E523089580E090E00E9470
:1017F000B123853E9E4F19F40E94EE17089580E0B4
:10180000089582E090E00E94A923089583E090E08B
:101810000E94A923089584E090E00E94B1230895D6
:10182000BC0184E090E00E94E5230895AB01BC0177
:101830008FE090E00E94D9230895AB01BC0183E1C1
:1018400090E00E94D923089560E070E0CB010E94EF
:101850001D0C089560E070E0CB010E94160C0E9400
:10186000240C0895A8E0B0E0E8E3FCE00C945823D1
:1018700065EE7EEF80E090E00E94E52360E082E08C
:1018800090E00E94C72381E08093A60161E083E09D
:1018900090E00E94C72360E074E184E090E00E9441
:1018A000E52360E086E090E00E94C72360E087E0E7
:1018B00090E00E94C72340E050E0BA0188E090E049
:1018C0000E94D92360E083E290E00E94C72360E099
:1018D0008CE090E00E94C72360E08DE090E00E94E1
:1018E000C72319821A821B821C821D821E821F82BC
:1018F000188648E050E067E170E0CE0101960E9452
:10190000B72340E050E0BA018FE190E00E94D92374
:1019100080E00E9407180E9439180E942A0C28961D
:10192000E2E00C9474230E94320C0895682F8EE03C
:1019300090E00E94C7230895A6E0B0E0E2EAFCE050
:101940000C9456230E948F1B8C0180913D02909134
:101950003E028017910779F019821A820E948F1B2C
:10196000BC0149815A8180E090E00E9427031093D6
:101970003E0200933D022696E4E00C9472230E94FE
:101980009B1B60934502709346028093470290939D
:101990004802609341027093420280934302909305
:1019A00044020895089508950E94D20C0895089560
:1019B0000E94D70C089588E99FE00E94D6100E94EB
:1019C000D30C0E94D40C089581E0089581E008951D
:1019D0000E94E40C0895089508950E94EB0C0E9463
:1019E000EC0C08950E94F50B811102C00E94930C2B
:1019F0000E94010C809349020E940B0C909371028B
:101A0000809370020E94F9100E94060C0E94A906A1
:101A10008091A5010E94C10608950E94861B0E9424
:101A200049180E9437100E94F20C0E9401030E9484
:101A3000D80C0895A6E0B0E0E0E2FDE00C9450235D
:101A40000E94E60C81110AC00E949C0C0E941B158A
:101A50000E940E032696EAE00C946C230E94471025
:101A600010913F0280E00E94A20F181307C010914E
:101A7000400281E00E94A20F181731F380914902C1
:101A800081FD0E94A80F0E94E80CC82E8FE3A82EAB
:101A900082E0B82E00E0802F0E94A20F182FF501DF
:101AA00091915F01891739F1D82ED926F12CEE24B6
:101AB000E3948D2D8E218115B9F0C114A9F0F9821E
:101AC0000A830E948F1B9C838B8381E08D8391E02E
:101AD000812F8E21811101C090E049815A816B8153
:101AE0007C818D810E942703F394EE0CF3E0FF12BA
:101AF000E0CFF501129381E0800F01E0823059F6CA
:101B00000E94BF0CA3CF1F93CF93DF930E94A80E18
:101B1000EC01811522E5920708F05DC0811540E5D2
:101B2000940708F0DBC0803E910528F58D3C9105B7
:101B300008F0ACC0883A910578F4853A910508F030
:101B4000A2C08130910509F441C00497813A910502
:101B5000E8F1C0E0D0E03AC0885A91094B97C8F745
:101B6000C85AD0E0CC0FDD1FC05BDE4F0990D88192
:101B7000C02DD4642BC0811550E49507F8F4C1152D
:101B800080E2D80708F0C0C0C83ED105F8F0CE0109
:101B90009A9581159F41E8F68D2F0E94490F182FC5
:101BA000CE0199270E94A80E212F30E0322F222744
:101BB000E901CC27DF71C82BD92B08C099270E94D7
:101BC000A80ECC27DF70C82BD92BD06ACE01DF91AD
:101BD000CF911F910895803842E59407C8F580366B
:101BE00052E5950708F05BC0C03482E5D807D0F411
:101BF000C03292E5D90708F04BC08C2F86958695A8
:101C000020E2829FC0011124C37021E030E0A901CD
:101C100002C0440F551FCA95E2F7EA01C82BD92B21
:101C2000DD68D4CF8C2F86958695877050E2859F8E
:101C3000C0011124C37021E030E0A90102C0440FAB
:101C4000551FCA95E2F7EA01C82BD92BDC68BECF35
:101C5000803C52E5950758F48F71C03AD245A0F503
:101C600090E0982F8827EC01C46FD06AAFCF805CDA
:101C70009245809708F06DCFDC2FCC27CC27DF7101
:101C8000C06FD06AA3CFA497D064A0CFD0659ECFF9
:101C9000CF71D0E0DC2FCC27C16FD06A97CF86956B
:101CA0008695877020E2829FC0011124C37021E0D5
:101CB00030E0A90102C0440F551FCA95E2F7EA01BE
:101CC000C82BD92BDA6882CF0E94490FC82FD0E0E9
:101CD000DC2FCC27CC27DF71D06278CF8F710E94A8
:101CE000490F53E0CC0FDD1F5A95E1F7CC27DF7089
:101CF000282F30E084FF04C050E1859F900111241B
:101D0000C22BD32BD06962CF8D2F8F710E94490FC8
:101D1000182FCE0199270E94A80E212F30E0322FD4
:101D2000222722273F71282B392BE901D5CF462FB7
:101D3000672F723028F4433018F40E94B1110895CF
:101D400080E090E008950E94970E0E94830D089510
:101D50009C01803E910509F448C0D8F48133910577
:101D600009F47DC048F48932910509F46DC08A9761
:101D700009F47CC0C90108958933910551F1823875
:101D8000910539F1C597B1F78091700285FFF2CFC7
:101D900029C0843E910509F447C048F4823E91056C
:101DA00099F1833E9105A9F121EE30E0E3CF863E23
:101DB000910509F444C0873E9105E1F680917002D7
:101DC00083FD61C09091710291FF2BC024EE30E041
:101DD000D1CF809170028370811152C080917102C5
:101DE00083FFC8CF29E230E0C5CF8091700280FD2B
:101DF00033C09091710290FFBDCF23EE30E084FF9D
:101E0000B9CF20E030E0B6CF8091700282FDF5CFEF
:101E1000B1CF8091700282FD30C09091710290FD2F
:101E20002FC084FFA7CFEDCF8091710281FFA2CF99
:101E30008091700227EE30E084FDE3CF9BCF80914C
:101E4000700283FDF7CF96CF8091700285FD1EC092
:101E50008091710283FF8ECF29E330E08BCF809198
:101E6000700286FF87CF2AE230E084CF8091700233
:101E700086FF80CF21E330E07DCF22EE30E07ACFC5
:101E800020EE30E077CF26EE30E074CF25E330E06F
:101E900071CF9091700292FF10C041E0282F247101
:101EA000243009F040E031E0282F2871283009F073
:101EB00030E0431711F02CE0822793FF10C041E07F
:101EC000282F2471243109F040E031E0282F2871B7
:101ED000283109F030E0431711F02CE082273091CF
:101EE000710230FF10C051E0282F2171213009F01C
:101EF00050E041E0282F2871283009F040E05417C5
:101F000011F029E0822731FF10C041E0282F217114
:101F1000213109F040E031E0282F2871283109F003
:101F200030E0431711F029E0822794FD877E089561
:101F300080E0089508950E949A0F089508950E94E0
:101F40009E0F0895E82FF0E0EC58FD4F8081089532
:101F5000089580EA8A95F1F7089500C008950E94D7
:101F6000A90F0895F894E82FE295EF70F0E041A1F1
:101F70008F7021E030E0B90102C0660F771F8A95AB
:101F8000E2F7CB01962F9095942391A392A1892BF0
:101F900082A37894089584E90E94B20F86E60E9495
:101FA000B20F84EF0E94B20F85EF0E94B20F86EF4E
:101FB0000E94B20F0895A0E0B0E0E1EEFFE00C94C3
:101FC0005223EC01D62E062F10E0C80187579E4FF2
:101FD0007C01FC0180818F3F09F444C0F894E82F14
:101FE000E295EF70F0E091A18F7021E030E001C048
:101FF000220F8A95EAF7892F822B81A382A120954F
:10200000282322A378940E94AD0FA6E8B1E091E0C6
:10201000C12C8D918F3F79F0E82FE295EF70E05E53
:10202000F0E0208130E08F7002C0359527958A95C9
:10203000E2F7892F20FD80E0C82A990FF1E0A93846
:10204000BF0739F7F70180818F3F11F00E94B20F6F
:1020500061E0C11001C060E08D2D0E94AF0FC00F84
:10206000D11FC882CDB7DEB7E8E00C946E230E9482
:10207000CB0F10927502109274021092730210929C
:10208000720282E00E947C100E949B0F0895A2E0E1
:10209000B0E0EDE4F0E10C9457231A82198260E07D
:1020A000CE0101960E94DB0F61E0CE0101960E94F5
:1020B000DB0F42E050E0BE016F5F7F4F82E792E0AE
:1020C0000E94932321E0892B81F420E042E064E721
:1020D00072E082E792E00E947D10182F0E949F0F0D
:1020E000812F2296E3E00C94732389819A81909347
:1020F000730280937202EACF0895A0E0B0E0E3E8B3
:10210000F0E10C945223D82EE92EF62ED72F042F6F
:10211000C22F211579F081E080934C020E948F1B21
:1021200090934B0280934A0280E0CDB7DEB7E8E09F
:102130000C946E23C0904C02C114B1F380914A02FA
:1021400090914B020E94A71B059770F310E0A80125
:102150006D2D7E2D8F2D9D2F0E949323892B41F075
:10216000A8016D2D7E2D8F2D9D2F0E94A023CC2D9B
:1021700010924C028C2FD9CF0E941A0D08950E9404
:10218000281B0E94951D0E94DB0C0E94AF1D0E941F
:102190000D0D0E94BC1D0E94C11D0E94BC100E941A
:1021A000DB1D0E94651C0E94ED0CF5CF90939B01F6
:1021B00080939A0108950E94EE0B089580E00E949A
:1021C000A20F817008950E9447102FEF86E791E0DB
:1021D000215080409040E1F700C000000E9447106D
:1021E0000E94DE10811521F00E94DB100E94DA1B94
:1021F00008950E94E310089584E0089550E0440F8C
:10220000551F96E0699F400D511D11249CE0899F48
:10221000400D511D1124CA01889608950F931F93F4
:10222000CF93DF938430C8F46230B8F44330A8F41D
:102230000E94FE108C010E94A923C82FD0E0DC2F41
:10224000CC27C80101960E94A9239E01282BC90111
:10225000DF91CF911F910F91089580E090E0F8CF2A
:102260000F931F93CF93DF93122F032F843078F4B3
:10227000623068F4433058F40E94FE10EC01602F85
:102280000E94C723612FCE0101960E94C723DF91D0
:10229000CF911F910F910895CF93DF93C0E0D0E0CD
:1022A0004D2F60E08C2F0E94DE019C014D2F60E0DD
:1022B0008C2F0E943011DF5FD33091F7D0E04D2F8B
:1022C00061E08C2F0E94DE019C014D2F61E08C2F7C
:1022D0000E943011DF5FD33091F7CF5FC430F9F641
:1022E000DF91CF910895EF92FF920F931F93CF93B9
:1022F000DF938C01EA017A01E60EF71ECE15DF05A9
:1023000029F4CDB7DEB7E6E00C94702380E000330B
:10231000110520F4C80188960E94A92389930F5FB4
:102320001F4FECCFEF92FF920F931F93CF93DF934A
:102330008C01EA017A01E60EF71ECE15DF0529F4BD
:10234000CDB7DEB7E6E00C9470230033110528F416
:102350006881C80188960E94C72321960F5F1F4F8E
:10236000ECCF843038F4623028F4433018F40E9403
:102370000E11089580E090E0089580E1089588EAC4
:1023800093E00895EF92FF920F931F93CF93DF9303
:102390008C01EA017A01E60EF71ECE15DF0529F45D
:1023A000CDB7DEB7E6E00C947023083A83E0180757
:1023B00048F4C801885A9F4F0E94A92389930F5F50
:1023C0001F4FEBCF80E0FACFEF92FF920F931F9356
:1023D000CF93DF938C01EA017A01E60EF71ECE154A
:1023E000DF0529F4CDB7DEB7E6E00C947023083A98
:1023F00083E0180730F46881C801885A9F4F0E9413
:10240000C72321960F5F1F4FEACFCF93DF93C8E515
:10241000D0E060E0CE010E94C7232196C11584E080
:10242000D807B9F7DF91CF910895A8E0B0E0EBE1CC
:10243000F2E10C945023F82E20E1821708F067C0D7
:102440008FEF93E00E94A923811161C008E510E09D
:10245000F11033C0FE0131965F0188E011928A9538
:10246000E9F76801FFEFCF1ADF0AC8010E94A9232C
:1024700089831A82811509F44AC08130C1F4780138
:1024800022E0E20EF11CC6010E94A9238A83811575
:10249000F1F19FEF980F9330E8F482E0C80ED11C61
:1024A000C7010E94A9238B83811589F11C8260E0FA
:1024B000C5010E94A0168601D4CF011584E018073B
:1024C00031F1C8010E94A9230F5F1F4F8111F5CF81
:1024D000FA94BECF8430A1F402E010E0C701EFEF20
:1024E000EE1AFE0A0E94A923F501E00FF11F808376
:1024F000811569F08C3731F4FE01E00FF11F128273
:102500006701D5CF0F5F1F4F0730110539F72896A8
:10251000EAE00C946C23CF93DF93EB0186319C4768
:1025200019F50E94C70A9D819115A1F08A7A91E060
:10253000811101C090E090934D02811549F085E32F
:102540000E94771A0E947F0B80E0DF91CF9108955F
:1025500089E2F6CF80914D02811521F085E30E943A
:102560008E1AF0CF89E2FBCF81E0EFCFCF93DF93DC
:10257000EC01FB018581811509F4CFC09E01305724
:102580002332310508F0AFC00E940B0C909371020A
:1025900080937002FE01E150F047E232F10520F431
:1025A000E75FFB4D0C943B23809170028160809328
:1025B000700290C0809171028860809371028AC01D
:1025C000809170028260F3CF809170028460EFCFBF
:1025D000809170028860EBCF809171028160EDCFB5
:1025E000809171028260E9CF809170028061DFCFBB
:1025F000809170028062DBCF809170028064D7CFBF
:102600000E945506809170028068D1CF809170023F
:102610008C60CDCF809171028360CFCF80917002AA
:102620008E7FC5CF80917102877FC7CF8091700266
:102630008D7FBDCF809170028B7FB9CF809170026A
:10264000877FB5CF809171028E7FB7CF8091710265
:102650008D7FB3CF809170028F7EA9CF8091700261
:102660008F7DA5CF809170028F7BA1CF0E945506F0
:10267000809170028F779BCF80917002837F97CF7C
:10268000809171028C7F99CF80917002992782FF8F
:10269000939590FB82F990FB83F989CF8091710229
:1026A000982F909590FB80F990FB81F986CF9091BF
:1026B0007002892F8F7B96FF806479CF0E94550628
:1026C00090917002892F97FB87F9805870CF81E035
:1026D0000E94960C80917002909171020E94100CE1
:1026E0000E94550680E0DF91CF91089580E0F0CF01
:1026F00090917002892F8F7E94FF806158CF9091C6
:102700007002892F8E7F90FF816051CF909171026E
:10271000892F877F93FF886050CF81E0E4CF282FF7
:1027200035EB2303C001112497FF04C080589109A1
:10273000892F089580589F4FFBCF8091540280FFCE
:102740000DC06091090170E0660F771F6038710558
:10275000B0F561157105A9F1862F089581FF07C0B5
:102760006091090184E0689FB0011124EFCF82FFDE
:1027700004C06091090188E0F6CF90915302911551
:10278000D9F02091080180910901682F70E092171B
:1027900030F043E0660F771F4A95E1F7D7CF899F66
:1027A000C001112433E0880F991F3A95E1F7622F99
:1027B00070E00E942723CACF68E070E0CDCF8FE79A
:1027C000089581E008958091540280FF0CC06091CB
:1027D000050170E0759567957595679561157105AB
:1027E00049F1862F089581FF06C06091050170E0D0
:1027F00075956795F3CF6091050182FD0BC09091AF
:1028000052029115A1F06091040180910501961783
:1028100038F0682F70E06038710500F38FE7089595
:10282000899FC001112470E00E942723F4CF61E04A
:1028300070E0D7CF81E00895E3E3E80FE331E0F5FE
:10284000F0E0E55DFB4D0C943B230E949D138195C8
:102850008093580208950E949D13FACF0E949D1301
:1028600081958093570208950E949D13FACF0E948C
:10287000E3138093590208950E94E3138195F9CFE1
:102880000E94E313819580935A0208950E94E313F6
:10289000FACF815D990B21E030E001C0220F8A95CB
:1028A000EAF780915602822B809356020895809118
:1028B0005402816080935402089580915402826092
:1028C000F9CF809154028460F5CF409157028D3C3E
:1028D00059F48091580287FF0DC01092580241159B
:1028E00059F41092530208C08E3C81F48091580232
:1028F00018169CF3411581F08091590290915A026B
:10290000892B811159C01092520208958F3C41F4D5
:1029100047FFF0CF10925702809158028115E0CF07
:10292000803D19F41416B4F3E5CF90915902893D16
:1029300029F41916FCF610925902DCCF8A3D19F4DD
:1029400097FFD8CFF8CF90915A028B3D29F497FF8B
:10295000D1CF10925A02CECF8C3D19F41916CCF378
:10296000C9CF9FE2980F983090F4815D990B21E0D8
:1029700030E0B90102C0660F771F8A95E2F7CB01FC
:10298000809590915602892380935602B3CF8D3D56
:1029900031F4809154028E7F80935402ABCF8E3DF0
:1029A00021F4809154028D7FF7CF8F3D09F0A2CFA3
:1029B000809154028B7FF0CF08950E948F1B20914D
:1029C000570230915802232B211521F08093500299
:1029D000909351022091590230915A02232B2115D4
:1029E00021F080934E0290934F0285E592E00E9481
:1029F0006C19089586E0E5E5F2E0DF011D928A9505
:102A0000E9F7109253021092520210925402089564
:102A1000FC01828181110DC0838181110AC08481F2
:102A2000811107C081E09581911101C080E0817022
:102A3000089581E0FCCFA6E0B0E0E1E2F5E10C947E
:102A4000522386E0E5E5F2E09E012F5F3F4FD9017A
:102A500001900D928A95E1F7109257021092580258
:102A60001092590210925A028B819C81892B790114
:102A7000811589F080915002909151020E94A71B0C
:102A80006C01809153028115B9F190910A019C1556
:102A90001D0408F43EC08D819E81892B811591F023
:102AA00080914E0290914F020E94A71B8C01809151
:102AB0005202811509F45FC090910601901711062A
:102AC00008F467C0B70185E592E00E94BF1A811142
:102AD00005C085E592E00E94081581110E94DD1471
:102AE00086E0F701A5E5B2E001900D928A95E1F745
:102AF0002696E8E00C946E2320910B019AE0299F22
:102B0000900111242C153D0530F68F5F8093530200
:102B100002C08F3FD1F7DB80D11459F00E949D1382
:102B200091E01D140CF09FEF899F802D112480935C
:102B30005702DC80D11459F00E949D1391E01D14BE
:102B40000CF09FEF899F802D112480935802809173
:102B50005702811509F49FCFD0905802D11409F47F
:102B60009ACF0E948F13809357028D2D0E948F134E
:102B70008093580290CF209107019AE0299F9001FD
:102B800011242017310708F09DCF8F5F80935202E8
:102B900002C08F3FD1F71D81111559F00E94E31338
:102BA00091E011160CF09FEF899F802D11248093E6
:102BB00059021E81111559F00E94E31391E011167C
:102BC0000CF09FEF899F802D112480935A028091F1
:102BD0005902811509F476CF10915A02111509F4A2
:102BE00071CF0E948F1380935902812F0E948F13FF
:102BF00080935A0267CFA0E0B0E0E1E0F6E10C94E8
:102C00005123E82FF0E0E452FF4FB490282F26958F
:102C10002695269530E0F901E458FE4F049187701F
:102C200010E0082E02C0159507950A94E2F701708E
:102C30001127F901E459FE4FE490F12C082E02C04F
:102C4000F594E7940A94E2F7E0FAEE24FF24E0F822
:102C5000F901E45AFE4FC491D0E002C0D595C79562
:102C60008A95E2F7C170DD27C62ED12C011511051A
:102C700049F5E114F10431F086EE0E946A03C601C1
:102C8000009771F5B6018B2D0E94E503C6010097F0
:102C900079F5E114F104A1F50115110531F081EE8A
:102CA0000E94B203C6010097C9F5CD2B31F08CE22A
:102CB0000E94FF03C114D104C9F5CDB7DEB7E9E026
:102CC0000C946D2381EE0E946A03C601009789F27D
:102CD000EFE9FFE03197F1F700C000000197F6CF70
:102CE000EFE9FFE03197F1F700C000000197C8CF8E
:102CF000EFE9FFE03197F1F700C000000197C7CF7F
:102D000086EE0E94B203C601009731F2EFE9FFE0C0
:102D10003197F1F700C000000197F6CFEFE9FFE02F
:102D20003197F1F700C000000197BDCF8FE99FE018
:102D30000197F1F700C0000091E0C91AD108BACF9D
:102D4000EF92FF921F93CF93DF93EC01162F8881B0
:102D5000811509F45AC0813009F053C0898181304E
:102D600071F47E0182E0E80EF11C8A810E94FF036B
:102D7000E701812F90E00097E1F52196E8CF8230BE
:102D800041F47E01E2E0EE0EF11C8A810E946A03AA
:102D9000EFCF833041F47E01F2E0EF0EF11C8A8127
:102DA0000E94B203E5CF843011F02196E2CF2A8150
:102DB000229680E090E06AE0AE014F5F5F4F2053C3
:102DC000330B2A30310550F0009799F2EFE9FFE01C
:102DD0003197F1F700C000000197F6CF689FF0012E
:102DE000699FF00D1124C9018E0F9F1F2981EA01EF
:102DF000E3CFEFE9FFE03197F1F700C00000019762
:102E0000BACF612F0E94FB15B8CFDF91CF911F91F0
:102E1000FF90EF9008950F931F93CF93DF93C42FEC
:102E2000D22FFC0185818115C9F040935D020E947B
:102E30008F1B90935C0280935B0280E28C0F883042
:102E400040F4C77081E001C0880FCA95EAF70E947C
:102E50000804DF91CF911F910F91089510915D02A9
:102E6000141333C080915B0290915C020E94A71BF7
:102E7000883C910550F5C0E2CD0F1D17C1F080E2EE
:102E8000810F883040F4177081E001C0880F1A95D7
:102E9000EAF70E940F04C83050F491E08D2F87703C
:102EA00001C0990F8A95EAF7892F0E940804802FA4
:102EB0000E94FF03C83068F6D77081E001C0880F18
:102EC000DA95EAF70E940F04C4CF80E28C0F8830B5
:102ED00008F0BFCFC77081E001C0880FCA95EAF73C
:102EE000F1CF0F93DB01FC01E851FC47E730F1051E
:102EF00098F5E25CFB4D0C943B2306E221EE41EE9B
:102F00006AE17CE7CD010E940B1780E00F910895E4
:102F100007E225EE45EE6BE17CE7F4CF06E221EE19
:102F200040EE68E17CE7EECF07E225EE44EE69E192
:102F30007CE7E8CF06E221EE42EE6CE17CE7E2CFEF
:102F400007E225EE46EE6DE17CE7DCCF08E221E00A
:102F500045EE6EE17CE7D6CF15968C9181111092EB
:102F60005D0281E0D3CFCF93DF939C01FB01273734
:102F70008CE7380739F028373C47F1F081E0DF91E2
:102F8000CF9108958581811591F00E94E5170E94E7
:102F9000D6060E94EB17D82F0E94E817C82F0E9470
:102FA000E5174D2F6C2F0E940C0880E0E8CF0E949F
:102FB000E5170E94E206EDCF8581811519F00E9488
:102FC000E817E5CF0E94E817F4CF80910E0108952D
:102FD00080910D01089580910C01089584E290E0A4
:102FE0000E94A923843289F485E290E00E94A923FB
:102FF000893059F486E290E00E94A92391E085305F
:1030000009F090E0892F8170089580E0FCCFCF9384
:10301000C82F64E2811101C06FEF84E290E00E944A
:10302000C72369E0C11101C06FEF85E290E00E9403
:10303000C72365E0C11101C06FEF86E290E00E94F6
:10304000C723CF910895089587E290E00E94A923B5
:10305000682F70E080E090E008950895CF93C62F28
:103060000E942D186C2F87E290E00E94C723CF9119
:10307000089580E00E94071860E070E0CB010E9494
:103080002E180E944C110E94051281E00E94071820
:1030900008950E9423180E9424180E942D180E944F
:1030A000EE17811102C00E943918089508959C01FD
:1030B000FB018581811551F0A90157574038510511
:1030C00030F4822F0E94151280E0089581E0089567
:1030D0002FEFFC01208308950E946818089580E076
:1030E0000895CF92DF92FF920F931F93CF93DF93B8
:1030F000EC01F62E0E946F18811110C0E881E1509A
:10310000E331E0F4F0E0EB5BFB4D0C943B231982E0
:103110008CE08A836F2DCE010E945B1CDF91CF91E2
:103120001F910F91FF90DF90CF9008958981833098
:10313000F9F038F4813061F0823099F08FEF8883B4
:10314000E9CF8430D9F71A821B821C821D82E2CF1C
:103150000E949B1B0E9441236A837B838C839D83F7
:10316000D9CF0E9424181A821B821C826D83D2CF71
:103170000A8110E06E0183E0C80ED11C02301105F7
:103180004CF6802F0E94A20FF60181936F010F5F12
:103190001F4FF4CF8981823031F0853079F68A81F2
:1031A0000E945618B7CF6A817B818C819D810E94D5
:1031B00041230E942E18AECF4B816A8189810E94E3
:1031C0000E119827892798279D838C83A3CF2C8164
:1031D0003D813227232732274B816A8189810E94D2
:1031E000301198CF0E944C1195CF6F2DCE010E94C7
:1031F0006C1890CF0E94BD1189838CCF0E94BF11A3
:103200009827892798279A83898384CF6B8170E0D8
:1032100089819A81AE014C5F5F4F98278927982753
:103220000E94C21177CF6B8170E089819A81AE01D3
:103230004C5F5F4F9827892798270E94E4116ACF37
:103240000E94051267CF0E94FC10D6CF6B8170E000
:1032500089819A81AE014C5F5F4F98278927982713
:103260000E94731157CF6B8170E089819A81AE0102
:103270004C5F5F4F9827892798270E9492114ACF69
:1032800090936302809362020895E0916202F0914C
:103290006302309729F00190F081E02D099508959F
:1032A00080E00895E0916202F0916302309721F08E
:1032B0000280F381E02D09950895DC01E09162021E
:1032C000F0916302309739F086E08C930480F581A9
:1032D000E02DCD0109950895DC01E0916202F091A5
:1032E0006302309739F082E08C930680F781E02DFD
:1032F000CD0109950895A3E0B0E0E1E8F9E10C946F
:1033000058239C018091600290916102821793077B
:10331000A1F03093610220936002E0916202F0918B
:103320006302309751F083E089833B832A830084D2
:10333000F185E02DCE01019609952396E2E00C94EB
:103340007423A3E0B0E0E7EAF9E10C9458239C0170
:1033500080915E0290915F0282179307A1F03093F3
:103360005F0220935E02E0916202F0916302309767
:1033700051F084E089833B832A830084F185E02D2A
:10338000CE01019609952396E2E00C9474232091D6
:103390000201309103012E5F3F4F80911901811589
:1033A00079F08091700287FF0BC02091000130916D
:1033B00001012E5F3F4F9EE180E0915018F4089587
:1033C00096E0FACFF90141919F014115B1F38F5F6A
:1033D000F4CF8115A1F190911901911521F09091EF
:1033E000700297FD0FC02091020130910301F90195
:1033F0003296285F3F4F9191981719F1E217F30722
:10340000D1F71DC0982F969596959695803FB8F464
:10341000E0910001F0910101E90FF11D228130E0FE
:10342000877041E050E0BA0102C0660F771F8A95AD
:10343000E2F7CB012623392381E0232B19F480E026
:10344000089581E008959C01FC0132968FEF90E091
:103450004191461751F08F3F19F4411101C0892F56
:103460009F5F9630A9F78F3F09F40895280F311D0B
:1034700087FD3A95F901628308959C01FC0132961B
:10348000285F3F4F8191861302C0DF011E92E21731
:10349000F307C1F70895FC01862F869586958695DA
:1034A000603F60F4E80FF11D677021E030E001C07B
:1034B000220F6A95EAF78281822B82830895FC01AC
:1034C000862F869586958695603F80F4E80FF11DDE
:1034D000677081E090E09C0102C0220F331F6A9563
:1034E000E2F7B90160958281682362830895682FAD
:1034F00080911901811559F08091700287FF07C0F2
:1035000080910001909101010E944B1A08958091D1
:103510000201909103010E94231A0895682F80915F
:103520001901811559F08091700287FF07C08091C1
:103530000001909101010E945F1A0895809102019B
:10354000909103010E943D1A0895809119018115FF
:1035500079F08091700287FF0BC0E0910001F0913B
:10356000010132968EE1DF011D928A95E9F70895F7
:10357000E0910201F0910301329686E0F4CFDC0184
:10358000FB0111969C9111978181981322C012968C
:103590008C911297811519F0928189131AC0139694
:1035A0008C911397811519F09381891312C0159688
:1035B0008C911597811519F0958189130AC014967D
:1035C0009C91911521F081E02481291303C080E0B2
:1035D00001C081E08170089508950E94EC1A089559
:1035E0008F5F809364020E94ED1A089583E08093B8
:1035F00064020E94ED1A08950E94F01A089581E075
:10360000809364020E94ED1A08950E94FF1A0895A3
:10361000089508950E94091B0895089508950E9431
:10362000081B08950E940D1B0E9447100E940E1B4C
:1036300080E00E94A20F811109C081E00E94A20FC8
:10364000982F81E0911103C080E0089581E00895F2
:1036500085B7806885BF85B7806885BF08951F924C
:103660001FB61F9211248F939F93AF93BF938091A6
:103670006502811113C08091760290917702A0912A
:103680007802B09179024196A11DB11D8093760216
:1036900090937702A0937802B0937902BF91AF9193
:1036A0009F918F911F901FBE1F90189580917E0251
:1036B000843031F10E94E5021092650288E190E0C9
:1036C00020E40FB6F894A895809360000FBE209375
:1036D000600083B7817F846083BF83B7816083BFCD
:1036E0007894889583B78E7F83BF0FB6F894A8959A
:1036F00080916000886180936000109260000FBE2E
:1037000008950E9455060E94EA02089582E084BD51
:1037100093E095BD9AEF97BD80936E0008952FB703
:10372000F8948091760290917702A0917802B091FE
:1037300079022FBF08952FB7F894609176027091A7
:10374000770280917802909179022FBF08959C01B1
:103750004FB7F8948091760290917702A091780209
:10376000B09179024FBF821B930B089578941F92FA
:103770001FB61F9211248F939F93AF93BF93809195
:10378000760290917702A0917802B0917902019629
:10379000A11DB11D8093760290937702A0937802C9
:1037A000B0937902BF91AF919F918F911F901FBEEF
:1037B0001F90189581E08093E00080E28093D8000C
:1037C0001092C9008FE19EE40197F1F700C000005C
:1037D00087E090EBDC018093870290938802A093AE
:1037E0008902B0938A0288E19CE00FB6F894A8950C
:1037F000809360000FBE90936000FFCF88E19CE053
:103800000FB6F894A895809360000FBE9093600067
:10381000FFCF80916E020895282FCB01BA0130911D
:103820007E023430D9F42F702093E9002FEF3091CD
:10383000E80035FD06C035ED3A95F1F700002A9510
:10384000B1F72091E80025FF09C040E050E00E9458
:10385000511E8091E8008E778093E8000895BC01A6
:1038600043E050E084E00E940C1C0895BC0146E057
:1038700050E084E00E940C1C0895BC0140E250E03E
:1038800084E00E940C1C0895CF93DF93D82FC92F9A
:1038900048E050E0682F792F81E00E940C1C88E0FE
:1038A000ED2FFC2FA6E6B2E001900D928A95E1F78C
:1038B000DF91CF910895792F603231F440E250E0EA
:1038C000682F82E00E940C1C0895A0E2B0E0EBE6B5
:1038D000FCE10C94582380917E02843009F583E04A
:1038E0008093E9008091E80082FF1AC08091E8008F
:1038F00090E085FF09C040E050E060E270E0CE015A
:1039000001960E94A11E91E08091E8008B77809340
:10391000E800911529F060E2CE0101960E9471182D
:10392000A096E2E00C94742380917D02811109C07D
:103930000E942A200E9487208091E2008460809368
:10394000E200089510927D0208950E94FF1A0895E2
:1039500060917A0281E0611101C080E00E94F61A54
:10396000089590917E0281E0943009F080E06091AA
:103970007A020E94FC1A089542E061EC81E00E9404
:10398000A61F42E261EC84E00E94A61F42E261ECC5
:1039900082E00E94A61F42E260EC83E00E94A61F24
:1039A00090917E0281E0943009F080E060917A028B
:1039B0000E94F01A089580918002893089F148F4BC
:1039C000823009F4A1C0833009F45BC0813041F03A
:1039D00008958A3009F488C08B3009F46DC00895C9
:1039E00080917F02813A09F04BC08091E800877F87
:1039F0008093E8008091830290918402892B61F08A
:103A000060E080E090E070E00E94F11E8091E800AC
:103A10008B778093E800089568E086E692E0F3CF24
:103A200080917F02813261F58091830290918402BE
:103A30008D7F892B29F58091E800877F8093E800AE
:103A40008091E80082FF18C09091F3008091F2000D
:103A5000029731F48091F100813011F0863021F429
:103A60008091F10080936E028091E8008B778093C3
:103A7000E8000E94DA1F089580917E028111E0CF54
:103A8000089580917F02813AD9F7809183029091C5
:103A90008402892BA9F78091E800877F8093E80052
:103AA0008091E80080FFFCCF809119018093F100A4
:103AB0008091E8008E77DBCF80917F02813201F721
:103AC0008091830290918402892BD1F68091E80045
:103AD000877F8093E8000E94DA1F809181028093A3
:103AE00019010E945506089580917F02813241F6A6
:103AF0008091E800877F8093E8000E94DA1F809120
:103B0000820280936F02089580917F02813A09F0CA
:103B1000B7CF8091E800877F8093E8008091E8002C
:103B200080FFFCCF80916F02C1CF84B7877F84BFB5
:103B30000FB6F894A895809160008861809360002A
:103B4000109260000FBE80E890E00FB6F89480936A
:103B50006100909361000FBE0E94051B08950E94B2
:103B60002A200E948720E2EEF0E08081846080833A
:103B700078940E940D2308958FE091E00E944019EF
:103B8000089580917E02853031F480917E028530E7
:103B900019F00E94811B08950E94561B0E94121B5F
:103BA000811599F380917C02811579F30E943B1E67
:103BB0000E945506EACF08959A01409185025091DE
:103BC00086020E94E41D0895FC01AB01D901892FF2
:103BD000992783309105C1F068F48130910509F48B
:103BE00045C0029761F48BE590E02EEB31E02D9318
:103BF0003C93089581329105E1F0829739F180E09C
:103C000090E020E030E0F3CFCF019927E13059F088
:103C10008230910559F0EAEBF1E0892B81F784912C
:103C200090E09F01E4CFE6EAF1E0F9CFECE8F1E0C3
:103C3000F6CF6330710518F7FB01EE0FFF1FEC564E
:103C4000FE4F2081318189E090E0D1CF6330710552
:103C5000B0F6FB01EE0FFF1FE257FE4F20813181CE
:103C600045575E4FFA01808190E0C1CF82E190E03C
:103C700029E132E0BCCF80E189BD82E189BD09B490
:103C800000FEFDCF8091D8008F7D8093D800809179
:103C9000E00082608093E0008091E00081FDFCCF35
:103CA0000895AF92BF92CF92DF92EF92FF920F935F
:103CB0001F93CF936C018B017A010E94F91FC82FCB
:103CC000811123C0E114F10439F0F7018081918161
:103CD000081B190BC80ED91EA12CB12C01151105FA
:103CE000A1F08091E80085FD21C08091E8008E77E9
:103CF0008093E800E114F10499F0F701808191814B
:103D00008A0D9B1D91838083C5E08C2FCF911F91DD
:103D10000F91FF90EF90DF90CF90BF90AF900895FC
:103D20000E94F91F8115E9F2C82FEFCFF6018191AA
:103D30006F018093F10001501109FFEFAF1ABF0A24
:103D4000CDCFAF92BF92CF92DF92EF92FF920F93BF
:103D50001F93CF936C018B017A010E94F91FC82F2A
:103D6000811123C0E114F10439F0F70180819181C0
:103D7000081B190BC80ED91EA12CB12C0115110559
:103D8000A1F08091E80085FD21C08091E8008B774B
:103D90008093E800E114F10499F0F70180819181AA
:103DA0008A0D9B1D91838083C5E08C2FCF911F913D
:103DB0000F91FF90EF90DF90CF90BF90AF9008955C
:103DC0000E94F91F8115E9F2C82FEFCF8091F10011
:103DD000F60181936F0101501109FFEFAF1ABF0A7D
:103DE000CDCFFC019B0180918502909186028617C0
:103DF000970718F0672B61F0C90140E0009771F454
:103E000041110CC08091E80082FF35C080E0089528
:103E10008091E8008E778093E800EECF20917E02BB
:103E20002115A9F12530A9F12091E80023FD2DC02D
:103E30002091E80022FDE6CF2091E80020FFDECFB0
:103E40003091F3002091F200009719F028303105ED
:103E500058F041E02830310509F040E02091E800B9
:103E60002E772093E800CACF41914093F10001974B
:103E70002F5F3F4FE9CF80917E02811541F0853061
:103E800041F08091E80083FFBDCF81E0089582E09A
:103E9000089583E00895FC019B0180918502909133
:103EA00086028617970718F0672B61F0C90140E07A
:103EB000009771F441110CC08091E80082FF36C078
:103EC00080E008958091E8008E778093E800EECF3F
:103ED00020917E022115B1F12530B1F12091E80049
:103EE00023FD2EC02091E80022FDE6CF2091E800BE
:103EF00020FFDECF3091F3002091F200009719F0FF
:103F00002830310558F041E02830310509F040E013
:103F10002091E8002E772093E800CACF4491409387
:103F2000F100319601972F5F3F4FE8CF80917E02DD
:103F3000811541F0853041F08091E80083FFBCCFCE
:103F400081E0089582E0089583E00895982F9730E6
:103F500028F08F708093E90081E008959093E90044
:103F6000242F762F50E0981731F07091EC002091BB
:103F7000ED005091F00021FD02C09F5FE8CF30912D
:103F8000EB003E7F3093EB003091ED003D7F3093AE
:103F9000ED003091EB0031603093EB007093EC005A
:103FA0002093ED005093F0002091EE0027FDE5CF27
:103FB00080E0089580917F0287FF13C08091E80020
:103FC00082FF06C08091E8008B778093E800089517
:103FD00080917E028111F2CF089580917E02811539
:103FE000D9F38091E80080FFF8CF8091E8008E77C8
:103FF000ECCF2091E4003091E50095E6A9012091F5
:10400000EC00822F817020FF06C08091E80080FFC5
:1040100006C080E008952091E80022FD1AC080913A
:104020007E02811589F0853089F08091EB0085FD55
:104030000FC02091E4003091E50042175307F9F2D8
:104040009A95E1F684E0089582E0089583E008956A
:1040500081E008950E9499200E94A120E0EEF0E006
:10406000808181608083E8EDF0E080818F778083BC
:1040700019BCA7EDB0E08C918E7F8C9380818F7EF0
:10408000808310927D0208950F931F93CF93DF9347
:104090000E9499200E94A120C8EDD0E088818F77EE
:1040A000888388818068888388818F7D888319BC14
:1040B00010927E0210927A0210927C0210927B0281
:1040C00000EE10E0F80180818B7F80838881816021
:1040D000888342E060E080E00E94A61FE1EEF0E00D
:1040E00080818E7F8083E2EEF0E08081816080833A
:1040F000808188608083F80180818E7F80838881C1
:1041000080618883DF91CF911F910F910895E8ED31
:10411000F0E080818F7E8083E7EDF0E08081816038
:10412000808384E082BF81E080937D020E944420EE
:104130000895E8EDF0E080818E7F80831092E200A8
:1041400008951092DA001092E10008951F920F92E4
:104150000FB60F9211242F933F934F935F936F935A
:104160007F938F939F93AF93BF93EF93FF93809130
:10417000E10082FF0BC08091E20082FF07C08091C6
:10418000E1008B7F8093E1000E940C238091DA0094
:1041900080FF19C08091D80080FF15C08091DA009F
:1041A0008E7F8093DA008091D90080FF94C080E1F7
:1041B00089BD82E189BD09B400FEFDCF81E0809315
:1041C0007E020E94941C8091E10080FF19C08091C2
:1041D000E20080FF15C08091E2008E7F8093E200B4
:1041E0008091E20080618093E2008091D80080623B
:1041F0008093D80019BC85E080937E020E94A81CA1
:104200008091E10084FF29C08091E20084FF25C0F5
:1042100080E189BD82E189BD09B400FEFDCF8091B6
:10422000D8008F7D8093D8008091E1008F7E8093AD
:10423000E1008091E2008F7E8093E2008091E200B5
:1042400081608093E20080917A02811509F449C06F
:1042500084E080937E020E94B11C8091E10083FF84
:1042600029C08091E20083FF25C08091E100877F13
:104270008093E10082E080937E0210927A02809126
:10428000E1008E7F8093E1008091E2008E7F809339
:10429000E2008091E20080618093E20042E060E011
:1042A00080E00E94A61F8091F00088608093F0005B
:1042B0000E94A51CFF91EF91BF91AF919F918F91AB
:1042C0007F916F915F914F913F912F910F900FBE12
:1042D0000F901F90189519BC10927E020E94A21C8C
:1042E00072CF8091E30087FF02C083E0B2CF81E00C
:1042F000B0CF1F920F920FB60F921124EF92FF9240
:104300000F931F932F933F934F935F936F937F93DD
:104310008F939F93AF93BF93CF93EF93FF9309EE48
:1043200010E0F8018081C091EC008F70C795CC2718
:10433000C795C82B108280EFE82EF12CF701808101
:10434000877F808378940E94C421F8011082F7014E
:10435000808188608083CF70F801C083FF91EF91E6
:10436000CF91BF91AF919F918F917F916F915F910D
:104370004F913F912F911F910F91FF90EF900F90D0
:104380000FBE0F901F901895AAE2B0E0EAECF1E2A0
:104390000C9456238FE792E0FC0101962091F100E6
:1043A000208322E087389207B9F70E94DB1C8091B6
:1043B000E80083FF38C080917F02909180029A309C
:1043C00090F5E92FF0E0E85AFB4D0C943B23803840
:1043D00089F0823841F5809183028F70873018F51B
:1043E0008093E9008091EB0085FB882780F910928B
:1043F000E90006C080917C02880F90917B02892B96
:104400009091E800977F9093E8008093F1001092DC
:10441000F1008091E8008E7723C0811116C0809151
:104420008102813011F18091E80083FF0AC0809100
:10443000E800877F8093E8008091EB0080628093A2
:10444000EB00AA96E4E00C947223823061F780912D
:104450008102811589F01092E9008091E800877F40
:104460008093E8000E94DA1FDECF81E0933009F0EC
:1044700080E080937C02EFCF809183028F702FEFDA
:10448000280F263080F68093E9002091EB0020FF72
:10449000E2CF933031F48091EB0080628093EB00A7
:1044A000DACF9091EB0090619093EB0021E030E047
:1044B000A90102C0440F551F8A95E2F74093EA0014
:1044C0001092EA008091EB008860E8CF8111ABCFB9
:1044D000109181021F778091E3008078812B809377
:1044E000E3008091E800877F8093E8000E94DA1F54
:1044F0008091E80080FFFCCF8091E300806880938A
:10450000E30083E0111101C082E080937E028BCF33
:104510008058823008F087CF80918102909182028A
:104520008C3D53E0950799F583E08A838AE289837D
:104530004FB7F894DE01139620E03EE051E2E32FFE
:10454000F0E050935700849120FF03C082958F7054
:104550003F5F8F708A30C8F0895C90E08D939D93A7
:104560002F5F243161F74FBF8091E800877F8093F0
:10457000E8006AE270E0CE0101960E94F11E80918F
:10458000E8008B778093E8004ECF805DE6CF6091A6
:10459000830270918402AE014F5F5F4F0E94DC1D69
:1045A0008C01892B09F43FCF8091E800877F8093AD
:1045B000E800B80189819A810E944B1FE0CF8038C2
:1045C00009F031CF8091E800877F8093E8008091E7
:1045D0007A028093F1001DCF811125CF9091810245
:1045E000923008F020CF8091E800877F8093E80028
:1045F00090937A020E94DA1F80917A02811531F03D
:1046000084E080937E020E94BC1C0DCF8091E30069
:1046100087FDF6CF81E0F5CF0895CF9380917E029C
:10462000811599F08091E900C091EC008F70C795D9
:10463000CC27C795C82B1092E9008091E80083FD34
:104640000E94C421CF70C093E900CF91089597FBD9
:10465000072E16F4009407D077FD09D00E947F231F
:1046600007FC05D03EF4909581959F4F0895709575
:1046700061957F4F0895EE0FFF1F0590F491E02D97
:104680000994692796276927782787277827089527
:104690002F923F924F925F926F927F928F929F9252
:1046A000AF92BF92CF92DF92EF92FF920F931F9340
:1046B000CF93DF93CDB7DEB7CA1BDB0B0FB6F894F1
:1046C000DEBF0FBECDBF09942A88398848885F8431
:1046D0006E847D848C849B84AA84B984C884DF80A2
:1046E000EE80FD800C811B81AA81B981CE0FD11D86
:1046F0000FB6F894DEBF0FBECDBFED010895AA1B23
:10470000BB1B51E107C0AA1FBB1FA617B70710F0BC
:10471000A61BB70B881F991F5A95A9F780959095EE
:10472000BC01CD010895FB01DC0104C08D91019015
:10473000801921F441505040C8F7881B990B089507
:10474000FB01DC0102C001900D9241505040D8F7AE
:104750000895F999FECF92BD81BDF89A992780B549
:104760000895A8E1B0E042E050E00C94ED23DC01B4
:10477000A40FB51F4150504048F0CB01840F951F46
:104780002E910E94C82341505040D0F70895262F03
:10479000F999FECF92BD81BDF89A019700B4021637
:1047A00039F01FBA20BD0FB6F894FA9AF99A0FBEE5
:1047B00008950396272F0E94C8230E94C723252F00
:1047C0000E94C823242F0C94C8230196272F0E94EF
:1047D000C8230C94C723DC01CB01FC01F999FECF5F
:1047E00006C0F2BDE1BDF89A319600B40D92415079
:1047F0005040B8F70895F894FFCF540454049B0434
:104800009B0400051D058304830422058F05A00574
:10481000A0050E137F131613E012E4121A13E81208
:104820001E132A13F4127813F8122E13FC123213EB
:104830005713001336135E1306133C134413EC1284
:104840002213F01226130A1340134E136713761324
:10485000DA121213861325142B142E14341449144F
:104860004914491449144914491449144914371472
:104870003C144014461457145D1461148E17941799
:104880007D1788179A17A017A61787189618CA18A1
:10489000DC18E718F218F518F518F5189E189E1888
:1048A000FA18FE1806191319201923192619331995
:1048B000E7210D2213220D221322662288221322C1
:0448C000DF22EC22E5
:1048C40013023302280850011E0A140103020109CD
:1048D4001C441C3D1C361C2F1C01E200E900EA00AC
:1048E400B500B600B700CD008301CC008A01920167
:1048F40094012102230224022502260227022A020D
:10490400B300B4006F0070009F01CB019F02A002AE
:10491400E200E900EA00B500B600B700CD0083016B
:10492400CC008A019201940121022302240225026F
:10493400260227022A02B300B4006F0070009F0110
:10494400CB019F02A002F4F5F694664422B6030359
:0A4954002B024D02D001E901090217
:00000001FF
